{
	"contracts/Voting.sol": {
		"VotingSystem": {
			"abi": [
				{
					"inputs": [],
					"stateMutability": "nonpayable",
					"type": "constructor"
				},
				{
					"inputs": [
						{
							"internalType": "uint256",
							"name": "",
							"type": "uint256"
						}
					],
					"name": "candidates",
					"outputs": [
						{
							"internalType": "string",
							"name": "name",
							"type": "string"
						},
						{
							"internalType": "uint256",
							"name": "numberOfVotes",
							"type": "uint256"
						}
					],
					"stateMutability": "view",
					"type": "function"
				},
				{
					"inputs": [],
					"name": "getVotes",
					"outputs": [
						{
							"components": [
								{
									"internalType": "string",
									"name": "name",
									"type": "string"
								},
								{
									"internalType": "uint256",
									"name": "numberOfVotes",
									"type": "uint256"
								}
							],
							"internalType": "struct VotingSystem.Candidate[]",
							"name": "",
							"type": "tuple[]"
						}
					],
					"stateMutability": "view",
					"type": "function"
				},
				{
					"inputs": [
						{
							"internalType": "address",
							"name": "",
							"type": "address"
						}
					],
					"name": "hasVoted",
					"outputs": [
						{
							"internalType": "bool",
							"name": "",
							"type": "bool"
						}
					],
					"stateMutability": "view",
					"type": "function"
				},
				{
					"inputs": [
						{
							"internalType": "string",
							"name": "_nameOfCandidate",
							"type": "string"
						}
					],
					"name": "vote",
					"outputs": [
						{
							"internalType": "string",
							"name": "",
							"type": "string"
						}
					],
					"stateMutability": "nonpayable",
					"type": "function"
				}
			],
			"devdoc": {
				"kind": "dev",
				"methods": {},
				"version": 1
			},
			"evm": {
				"assembly": "    /* \"contracts/Voting.sol\":60:1387  contract VotingSystem {... */\n  mstore(0x40, 0x80)\n    /* \"contracts/Voting.sol\":318:446  constructor() {... */\n  callvalue\n  dup1\n  iszero\n  tag_1\n  jumpi\n  0x00\n  dup1\n  revert\ntag_1:\n  pop\n    /* \"contracts/Voting.sol\":343:369  addCandidate(\"Emmanuella\") */\n  tag_4\n  mload(0x40)\n  dup1\n  0x40\n  add\n  0x40\n  mstore\n  dup1\n  0x0a\n  dup2\n  mstore\n  0x20\n  add\n  0x456d6d616e75656c6c6100000000000000000000000000000000000000000000\n  dup2\n  mstore\n  pop\n    /* \"contracts/Voting.sol\":343:355  addCandidate */\n  shl(0x20, tag_5)\n    /* \"contracts/Voting.sol\":343:369  addCandidate(\"Emmanuella\") */\n  0x20\n  shr\n  jump\t// in\ntag_4:\n    /* \"contracts/Voting.sol\":380:402  addCandidate(\"KamKam\") */\n  tag_6\n  mload(0x40)\n  dup1\n  0x40\n  add\n  0x40\n  mstore\n  dup1\n  0x06\n  dup2\n  mstore\n  0x20\n  add\n  0x4b616d4b616d0000000000000000000000000000000000000000000000000000\n  dup2\n  mstore\n  pop\n    /* \"contracts/Voting.sol\":380:392  addCandidate */\n  shl(0x20, tag_5)\n    /* \"contracts/Voting.sol\":380:402  addCandidate(\"KamKam\") */\n  0x20\n  shr\n  jump\t// in\ntag_6:\n    /* \"contracts/Voting.sol\":413:438  addCandidate(\"Gabriella\") */\n  tag_7\n  mload(0x40)\n  dup1\n  0x40\n  add\n  0x40\n  mstore\n  dup1\n  0x09\n  dup2\n  mstore\n  0x20\n  add\n  0x4761627269656c6c610000000000000000000000000000000000000000000000\n  dup2\n  mstore\n  pop\n    /* \"contracts/Voting.sol\":413:425  addCandidate */\n  shl(0x20, tag_5)\n    /* \"contracts/Voting.sol\":413:438  addCandidate(\"Gabriella\") */\n  0x20\n  shr\n  jump\t// in\ntag_7:\n    /* \"contracts/Voting.sol\":60:1387  contract VotingSystem {... */\n  jump(tag_8)\n    /* \"contracts/Voting.sol\":454:756  function addCandidate(string memory _name) private {... */\ntag_5:\n    /* \"contracts/Voting.sol\":516:532  bytes32 nameHash */\n  0x00\n    /* \"contracts/Voting.sol\":562:567  _name */\n  dup2\n    /* \"contracts/Voting.sol\":545:568  abi.encodePacked(_name) */\n  add(0x20, mload(0x40))\n  tag_10\n  swap2\n  swap1\n  tag_11\n  jump\t// in\ntag_10:\n  mload(0x40)\n  0x20\n  dup2\n  dup4\n  sub\n  sub\n  dup2\n  mstore\n  swap1\n  0x40\n  mstore\n    /* \"contracts/Voting.sol\":535:569  keccak256(abi.encodePacked(_name)) */\n  dup1\n  mload\n  swap1\n  0x20\n  add\n  keccak256\n    /* \"contracts/Voting.sol\":516:569  bytes32 nameHash = keccak256(abi.encodePacked(_name)) */\n  swap1\n  pop\n    /* \"contracts/Voting.sol\":616:617  0 */\n  0x00\n    /* \"contracts/Voting.sol\":588:602  candidateIndex */\n  dup1\n    /* \"contracts/Voting.sol\":588:612  candidateIndex[nameHash] */\n  0x00\n    /* \"contracts/Voting.sol\":603:611  nameHash */\n  dup4\n    /* \"contracts/Voting.sol\":588:612  candidateIndex[nameHash] */\n  dup2\n  mstore\n  0x20\n  add\n  swap1\n  dup2\n  mstore\n  0x20\n  add\n  0x00\n  keccak256\n  sload\n    /* \"contracts/Voting.sol\":588:617  candidateIndex[nameHash] == 0 */\n  eq\n    /* \"contracts/Voting.sol\":580:646  require(candidateIndex[nameHash] == 0, \"Candidate already exists\") */\n  tag_12\n  jumpi\n  mload(0x40)\n  0x08c379a000000000000000000000000000000000000000000000000000000000\n  dup2\n  mstore\n  0x04\n  add\n  tag_13\n  swap1\n  tag_14\n  jump\t// in\ntag_13:\n  mload(0x40)\n  dup1\n  swap2\n  sub\n  swap1\n  revert\ntag_12:\n    /* \"contracts/Voting.sol\":657:667  candidates */\n  0x01\n    /* \"contracts/Voting.sol\":673:692  Candidate(_name, 0) */\n  mload(0x40)\n  dup1\n  0x40\n  add\n  0x40\n  mstore\n  dup1\n    /* \"contracts/Voting.sol\":683:688  _name */\n  dup5\n    /* \"contracts/Voting.sol\":673:692  Candidate(_name, 0) */\n  dup2\n  mstore\n  0x20\n  add\n    /* \"contracts/Voting.sol\":690:691  0 */\n  0x00\n    /* \"contracts/Voting.sol\":673:692  Candidate(_name, 0) */\n  dup2\n  mstore\n  pop\n    /* \"contracts/Voting.sol\":657:693  candidates.push(Candidate(_name, 0)) */\n  swap1\n  dup1\n  0x01\n  dup2\n  sload\n  add\n  dup1\n  dup3\n  sstore\n  dup1\n  swap2\n  pop\n  pop\n  0x01\n  swap1\n  sub\n  swap1\n  0x00\n  mstore\n  keccak256(0x00, 0x20)\n  swap1\n  0x02\n  mul\n  add\n  0x00\n  swap1\n  swap2\n  swap1\n  swap2\n  swap1\n  swap2\n  pop\n  0x00\n  dup3\n  add\n  mload\n  dup2\n  0x00\n  add\n  swap1\n  dup2\n  tag_16\n  swap2\n  swap1\n  tag_17\n  jump\t// in\ntag_16:\n  pop\n  0x20\n  dup3\n  add\n  mload\n  dup2\n  0x01\n  add\n  sstore\n  pop\n  pop\n    /* \"contracts/Voting.sol\":731:741  candidates */\n  0x01\n    /* \"contracts/Voting.sol\":731:748  candidates.length */\n  dup1\n  sload\n  swap1\n  pop\n    /* \"contracts/Voting.sol\":704:718  candidateIndex */\n  0x00\n    /* \"contracts/Voting.sol\":704:728  candidateIndex[nameHash] */\n  dup1\n    /* \"contracts/Voting.sol\":719:727  nameHash */\n  dup4\n    /* \"contracts/Voting.sol\":704:728  candidateIndex[nameHash] */\n  dup2\n  mstore\n  0x20\n  add\n  swap1\n  dup2\n  mstore\n  0x20\n  add\n  0x00\n  keccak256\n    /* \"contracts/Voting.sol\":704:748  candidateIndex[nameHash] = candidates.length */\n  dup2\n  swap1\n  sstore\n  pop\n    /* \"contracts/Voting.sol\":505:756  {... */\n  pop\n    /* \"contracts/Voting.sol\":454:756  function addCandidate(string memory _name) private {... */\n  pop\n  jump\t// out\n    /* \"#utility.yul\":7:106   */\ntag_18:\n    /* \"#utility.yul\":59:65   */\n  0x00\n    /* \"#utility.yul\":93:98   */\n  dup2\n    /* \"#utility.yul\":87:99   */\n  mload\n    /* \"#utility.yul\":77:99   */\n  swap1\n  pop\n    /* \"#utility.yul\":7:106   */\n  swap2\n  swap1\n  pop\n  jump\t// out\n    /* \"#utility.yul\":112:260   */\ntag_19:\n    /* \"#utility.yul\":214:225   */\n  0x00\n    /* \"#utility.yul\":251:254   */\n  dup2\n    /* \"#utility.yul\":236:254   */\n  swap1\n  pop\n    /* \"#utility.yul\":112:260   */\n  swap3\n  swap2\n  pop\n  pop\n  jump\t// out\n    /* \"#utility.yul\":266:405   */\ntag_20:\n    /* \"#utility.yul\":355:361   */\n  dup3\n    /* \"#utility.yul\":350:353   */\n  dup2\n    /* \"#utility.yul\":345:348   */\n  dup4\n    /* \"#utility.yul\":339:362   */\n  mcopy\n    /* \"#utility.yul\":396:397   */\n  0x00\n    /* \"#utility.yul\":387:393   */\n  dup4\n    /* \"#utility.yul\":382:385   */\n  dup4\n    /* \"#utility.yul\":378:394   */\n  add\n    /* \"#utility.yul\":371:398   */\n  mstore\n    /* \"#utility.yul\":266:405   */\n  pop\n  pop\n  pop\n  jump\t// out\n    /* \"#utility.yul\":411:801   */\ntag_21:\n    /* \"#utility.yul\":517:520   */\n  0x00\n    /* \"#utility.yul\":545:584   */\n  tag_49\n    /* \"#utility.yul\":578:583   */\n  dup3\n    /* \"#utility.yul\":545:584   */\n  tag_18\n  jump\t// in\ntag_49:\n    /* \"#utility.yul\":600:689   */\n  tag_50\n    /* \"#utility.yul\":682:688   */\n  dup2\n    /* \"#utility.yul\":677:680   */\n  dup6\n    /* \"#utility.yul\":600:689   */\n  tag_19\n  jump\t// in\ntag_50:\n    /* \"#utility.yul\":593:689   */\n  swap4\n  pop\n    /* \"#utility.yul\":698:763   */\n  tag_51\n    /* \"#utility.yul\":756:762   */\n  dup2\n    /* \"#utility.yul\":751:754   */\n  dup6\n    /* \"#utility.yul\":744:748   */\n  0x20\n    /* \"#utility.yul\":737:742   */\n  dup7\n    /* \"#utility.yul\":733:749   */\n  add\n    /* \"#utility.yul\":698:763   */\n  tag_20\n  jump\t// in\ntag_51:\n    /* \"#utility.yul\":788:794   */\n  dup1\n    /* \"#utility.yul\":783:786   */\n  dup5\n    /* \"#utility.yul\":779:795   */\n  add\n    /* \"#utility.yul\":772:795   */\n  swap2\n  pop\n    /* \"#utility.yul\":521:801   */\n  pop\n    /* \"#utility.yul\":411:801   */\n  swap3\n  swap2\n  pop\n  pop\n  jump\t// out\n    /* \"#utility.yul\":807:1082   */\ntag_11:\n    /* \"#utility.yul\":939:942   */\n  0x00\n    /* \"#utility.yul\":961:1056   */\n  tag_53\n    /* \"#utility.yul\":1052:1055   */\n  dup3\n    /* \"#utility.yul\":1043:1049   */\n  dup5\n    /* \"#utility.yul\":961:1056   */\n  tag_21\n  jump\t// in\ntag_53:\n    /* \"#utility.yul\":954:1056   */\n  swap2\n  pop\n    /* \"#utility.yul\":1073:1076   */\n  dup2\n    /* \"#utility.yul\":1066:1076   */\n  swap1\n  pop\n    /* \"#utility.yul\":807:1082   */\n  swap3\n  swap2\n  pop\n  pop\n  jump\t// out\n    /* \"#utility.yul\":1088:1257   */\ntag_22:\n    /* \"#utility.yul\":1172:1183   */\n  0x00\n    /* \"#utility.yul\":1206:1212   */\n  dup3\n    /* \"#utility.yul\":1201:1204   */\n  dup3\n    /* \"#utility.yul\":1194:1213   */\n  mstore\n    /* \"#utility.yul\":1246:1250   */\n  0x20\n    /* \"#utility.yul\":1241:1244   */\n  dup3\n    /* \"#utility.yul\":1237:1251   */\n  add\n    /* \"#utility.yul\":1222:1251   */\n  swap1\n  pop\n    /* \"#utility.yul\":1088:1257   */\n  swap3\n  swap2\n  pop\n  pop\n  jump\t// out\n    /* \"#utility.yul\":1263:1437   */\ntag_23:\n    /* \"#utility.yul\":1403:1429   */\n  0x43616e64696461746520616c7265616479206578697374730000000000000000\n    /* \"#utility.yul\":1399:1400   */\n  0x00\n    /* \"#utility.yul\":1391:1397   */\n  dup3\n    /* \"#utility.yul\":1387:1401   */\n  add\n    /* \"#utility.yul\":1380:1430   */\n  mstore\n    /* \"#utility.yul\":1263:1437   */\n  pop\n  jump\t// out\n    /* \"#utility.yul\":1443:1809   */\ntag_24:\n    /* \"#utility.yul\":1585:1588   */\n  0x00\n    /* \"#utility.yul\":1606:1673   */\n  tag_57\n    /* \"#utility.yul\":1670:1672   */\n  0x18\n    /* \"#utility.yul\":1665:1668   */\n  dup4\n    /* \"#utility.yul\":1606:1673   */\n  tag_22\n  jump\t// in\ntag_57:\n    /* \"#utility.yul\":1599:1673   */\n  swap2\n  pop\n    /* \"#utility.yul\":1682:1775   */\n  tag_58\n    /* \"#utility.yul\":1771:1774   */\n  dup3\n    /* \"#utility.yul\":1682:1775   */\n  tag_23\n  jump\t// in\ntag_58:\n    /* \"#utility.yul\":1800:1802   */\n  0x20\n    /* \"#utility.yul\":1795:1798   */\n  dup3\n    /* \"#utility.yul\":1791:1803   */\n  add\n    /* \"#utility.yul\":1784:1803   */\n  swap1\n  pop\n    /* \"#utility.yul\":1443:1809   */\n  swap2\n  swap1\n  pop\n  jump\t// out\n    /* \"#utility.yul\":1815:2234   */\ntag_14:\n    /* \"#utility.yul\":1981:1985   */\n  0x00\n    /* \"#utility.yul\":2019:2021   */\n  0x20\n    /* \"#utility.yul\":2008:2017   */\n  dup3\n    /* \"#utility.yul\":2004:2022   */\n  add\n    /* \"#utility.yul\":1996:2022   */\n  swap1\n  pop\n    /* \"#utility.yul\":2068:2077   */\n  dup2\n    /* \"#utility.yul\":2062:2066   */\n  dup2\n    /* \"#utility.yul\":2058:2078   */\n  sub\n    /* \"#utility.yul\":2054:2055   */\n  0x00\n    /* \"#utility.yul\":2043:2052   */\n  dup4\n    /* \"#utility.yul\":2039:2056   */\n  add\n    /* \"#utility.yul\":2032:2079   */\n  mstore\n    /* \"#utility.yul\":2096:2227   */\n  tag_60\n    /* \"#utility.yul\":2222:2226   */\n  dup2\n    /* \"#utility.yul\":2096:2227   */\n  tag_24\n  jump\t// in\ntag_60:\n    /* \"#utility.yul\":2088:2227   */\n  swap1\n  pop\n    /* \"#utility.yul\":1815:2234   */\n  swap2\n  swap1\n  pop\n  jump\t// out\n    /* \"#utility.yul\":2240:2420   */\ntag_25:\n    /* \"#utility.yul\":2288:2365   */\n  0x4e487b7100000000000000000000000000000000000000000000000000000000\n    /* \"#utility.yul\":2285:2286   */\n  0x00\n    /* \"#utility.yul\":2278:2366   */\n  mstore\n    /* \"#utility.yul\":2385:2389   */\n  0x41\n    /* \"#utility.yul\":2382:2383   */\n  0x04\n    /* \"#utility.yul\":2375:2390   */\n  mstore\n    /* \"#utility.yul\":2409:2413   */\n  0x24\n    /* \"#utility.yul\":2406:2407   */\n  0x00\n    /* \"#utility.yul\":2399:2414   */\n  revert\n    /* \"#utility.yul\":2426:2606   */\ntag_26:\n    /* \"#utility.yul\":2474:2551   */\n  0x4e487b7100000000000000000000000000000000000000000000000000000000\n    /* \"#utility.yul\":2471:2472   */\n  0x00\n    /* \"#utility.yul\":2464:2552   */\n  mstore\n    /* \"#utility.yul\":2571:2575   */\n  0x22\n    /* \"#utility.yul\":2568:2569   */\n  0x04\n    /* \"#utility.yul\":2561:2576   */\n  mstore\n    /* \"#utility.yul\":2595:2599   */\n  0x24\n    /* \"#utility.yul\":2592:2593   */\n  0x00\n    /* \"#utility.yul\":2585:2600   */\n  revert\n    /* \"#utility.yul\":2612:2932   */\ntag_27:\n    /* \"#utility.yul\":2656:2662   */\n  0x00\n    /* \"#utility.yul\":2693:2694   */\n  0x02\n    /* \"#utility.yul\":2687:2691   */\n  dup3\n    /* \"#utility.yul\":2683:2695   */\n  div\n    /* \"#utility.yul\":2673:2695   */\n  swap1\n  pop\n    /* \"#utility.yul\":2740:2741   */\n  0x01\n    /* \"#utility.yul\":2734:2738   */\n  dup3\n    /* \"#utility.yul\":2730:2742   */\n  and\n    /* \"#utility.yul\":2761:2779   */\n  dup1\n    /* \"#utility.yul\":2751:2832   */\n  tag_64\n  jumpi\n    /* \"#utility.yul\":2817:2821   */\n  0x7f\n    /* \"#utility.yul\":2809:2815   */\n  dup3\n    /* \"#utility.yul\":2805:2822   */\n  and\n    /* \"#utility.yul\":2795:2822   */\n  swap2\n  pop\n    /* \"#utility.yul\":2751:2832   */\ntag_64:\n    /* \"#utility.yul\":2879:2881   */\n  0x20\n    /* \"#utility.yul\":2871:2877   */\n  dup3\n    /* \"#utility.yul\":2868:2882   */\n  lt\n    /* \"#utility.yul\":2848:2866   */\n  dup2\n    /* \"#utility.yul\":2845:2883   */\n  sub\n    /* \"#utility.yul\":2842:2926   */\n  tag_65\n  jumpi\n    /* \"#utility.yul\":2898:2916   */\n  tag_66\n  tag_26\n  jump\t// in\ntag_66:\n    /* \"#utility.yul\":2842:2926   */\ntag_65:\n    /* \"#utility.yul\":2663:2932   */\n  pop\n    /* \"#utility.yul\":2612:2932   */\n  swap2\n  swap1\n  pop\n  jump\t// out\n    /* \"#utility.yul\":2938:3079   */\ntag_28:\n    /* \"#utility.yul\":2987:2991   */\n  0x00\n    /* \"#utility.yul\":3010:3013   */\n  dup2\n    /* \"#utility.yul\":3002:3013   */\n  swap1\n  pop\n    /* \"#utility.yul\":3033:3036   */\n  dup2\n    /* \"#utility.yul\":3030:3031   */\n  0x00\n    /* \"#utility.yul\":3023:3037   */\n  mstore\n    /* \"#utility.yul\":3067:3071   */\n  0x20\n    /* \"#utility.yul\":3064:3065   */\n  0x00\n    /* \"#utility.yul\":3054:3072   */\n  keccak256\n    /* \"#utility.yul\":3046:3072   */\n  swap1\n  pop\n    /* \"#utility.yul\":2938:3079   */\n  swap2\n  swap1\n  pop\n  jump\t// out\n    /* \"#utility.yul\":3085:3178   */\ntag_29:\n    /* \"#utility.yul\":3122:3128   */\n  0x00\n    /* \"#utility.yul\":3169:3171   */\n  0x20\n    /* \"#utility.yul\":3164:3166   */\n  0x1f\n    /* \"#utility.yul\":3157:3162   */\n  dup4\n    /* \"#utility.yul\":3153:3167   */\n  add\n    /* \"#utility.yul\":3149:3172   */\n  div\n    /* \"#utility.yul\":3139:3172   */\n  swap1\n  pop\n    /* \"#utility.yul\":3085:3178   */\n  swap2\n  swap1\n  pop\n  jump\t// out\n    /* \"#utility.yul\":3184:3291   */\ntag_30:\n    /* \"#utility.yul\":3228:3236   */\n  0x00\n    /* \"#utility.yul\":3278:3283   */\n  dup3\n    /* \"#utility.yul\":3272:3276   */\n  dup3\n    /* \"#utility.yul\":3268:3284   */\n  shl\n    /* \"#utility.yul\":3247:3284   */\n  swap1\n  pop\n    /* \"#utility.yul\":3184:3291   */\n  swap3\n  swap2\n  pop\n  pop\n  jump\t// out\n    /* \"#utility.yul\":3297:3690   */\ntag_31:\n    /* \"#utility.yul\":3366:3372   */\n  0x00\n    /* \"#utility.yul\":3416:3417   */\n  0x08\n    /* \"#utility.yul\":3404:3414   */\n  dup4\n    /* \"#utility.yul\":3400:3418   */\n  mul\n    /* \"#utility.yul\":3439:3536   */\n  tag_71\n    /* \"#utility.yul\":3469:3535   */\n  0xffffffffffffffffffffffffffffffffffffffffffffffffffffffffffffffff\n    /* \"#utility.yul\":3458:3467   */\n  dup3\n    /* \"#utility.yul\":3439:3536   */\n  tag_30\n  jump\t// in\ntag_71:\n    /* \"#utility.yul\":3557:3596   */\n  tag_72\n    /* \"#utility.yul\":3587:3595   */\n  dup7\n    /* \"#utility.yul\":3576:3585   */\n  dup4\n    /* \"#utility.yul\":3557:3596   */\n  tag_30\n  jump\t// in\ntag_72:\n    /* \"#utility.yul\":3545:3596   */\n  swap6\n  pop\n    /* \"#utility.yul\":3629:3633   */\n  dup1\n    /* \"#utility.yul\":3625:3634   */\n  not\n    /* \"#utility.yul\":3618:3623   */\n  dup5\n    /* \"#utility.yul\":3614:3635   */\n  and\n    /* \"#utility.yul\":3605:3635   */\n  swap4\n  pop\n    /* \"#utility.yul\":3678:3682   */\n  dup1\n    /* \"#utility.yul\":3668:3676   */\n  dup7\n    /* \"#utility.yul\":3664:3683   */\n  and\n    /* \"#utility.yul\":3657:3662   */\n  dup5\n    /* \"#utility.yul\":3654:3684   */\n  or\n    /* \"#utility.yul\":3644:3684   */\n  swap3\n  pop\n    /* \"#utility.yul\":3373:3690   */\n  pop\n  pop\n    /* \"#utility.yul\":3297:3690   */\n  swap4\n  swap3\n  pop\n  pop\n  pop\n  jump\t// out\n    /* \"#utility.yul\":3696:3773   */\ntag_32:\n    /* \"#utility.yul\":3733:3740   */\n  0x00\n    /* \"#utility.yul\":3762:3767   */\n  dup2\n    /* \"#utility.yul\":3751:3767   */\n  swap1\n  pop\n    /* \"#utility.yul\":3696:3773   */\n  swap2\n  swap1\n  pop\n  jump\t// out\n    /* \"#utility.yul\":3779:3839   */\ntag_33:\n    /* \"#utility.yul\":3807:3810   */\n  0x00\n    /* \"#utility.yul\":3828:3833   */\n  dup2\n    /* \"#utility.yul\":3821:3833   */\n  swap1\n  pop\n    /* \"#utility.yul\":3779:3839   */\n  swap2\n  swap1\n  pop\n  jump\t// out\n    /* \"#utility.yul\":3845:3987   */\ntag_34:\n    /* \"#utility.yul\":3895:3904   */\n  0x00\n    /* \"#utility.yul\":3928:3981   */\n  tag_76\n    /* \"#utility.yul\":3946:3980   */\n  tag_77\n    /* \"#utility.yul\":3955:3979   */\n  tag_78\n    /* \"#utility.yul\":3973:3978   */\n  dup5\n    /* \"#utility.yul\":3955:3979   */\n  tag_32\n  jump\t// in\ntag_78:\n    /* \"#utility.yul\":3946:3980   */\n  tag_33\n  jump\t// in\ntag_77:\n    /* \"#utility.yul\":3928:3981   */\n  tag_32\n  jump\t// in\ntag_76:\n    /* \"#utility.yul\":3915:3981   */\n  swap1\n  pop\n    /* \"#utility.yul\":3845:3987   */\n  swap2\n  swap1\n  pop\n  jump\t// out\n    /* \"#utility.yul\":3993:4068   */\ntag_35:\n    /* \"#utility.yul\":4036:4039   */\n  0x00\n    /* \"#utility.yul\":4057:4062   */\n  dup2\n    /* \"#utility.yul\":4050:4062   */\n  swap1\n  pop\n    /* \"#utility.yul\":3993:4068   */\n  swap2\n  swap1\n  pop\n  jump\t// out\n    /* \"#utility.yul\":4074:4343   */\ntag_36:\n    /* \"#utility.yul\":4184:4223   */\n  tag_81\n    /* \"#utility.yul\":4215:4222   */\n  dup4\n    /* \"#utility.yul\":4184:4223   */\n  tag_34\n  jump\t// in\ntag_81:\n    /* \"#utility.yul\":4245:4336   */\n  tag_82\n    /* \"#utility.yul\":4294:4335   */\n  tag_83\n    /* \"#utility.yul\":4318:4334   */\n  dup3\n    /* \"#utility.yul\":4294:4335   */\n  tag_35\n  jump\t// in\ntag_83:\n    /* \"#utility.yul\":4286:4292   */\n  dup5\n    /* \"#utility.yul\":4279:4283   */\n  dup5\n    /* \"#utility.yul\":4273:4284   */\n  sload\n    /* \"#utility.yul\":4245:4336   */\n  tag_31\n  jump\t// in\ntag_82:\n    /* \"#utility.yul\":4239:4243   */\n  dup3\n    /* \"#utility.yul\":4232:4337   */\n  sstore\n    /* \"#utility.yul\":4150:4343   */\n  pop\n    /* \"#utility.yul\":4074:4343   */\n  pop\n  pop\n  pop\n  jump\t// out\n    /* \"#utility.yul\":4349:4422   */\ntag_37:\n    /* \"#utility.yul\":4394:4397   */\n  0x00\n    /* \"#utility.yul\":4349:4422   */\n  swap1\n  jump\t// out\n    /* \"#utility.yul\":4428:4617   */\ntag_38:\n    /* \"#utility.yul\":4505:4537   */\n  tag_86\n  tag_37\n  jump\t// in\ntag_86:\n    /* \"#utility.yul\":4546:4611   */\n  tag_87\n    /* \"#utility.yul\":4604:4610   */\n  dup2\n    /* \"#utility.yul\":4596:4602   */\n  dup5\n    /* \"#utility.yul\":4590:4594   */\n  dup5\n    /* \"#utility.yul\":4546:4611   */\n  tag_36\n  jump\t// in\ntag_87:\n    /* \"#utility.yul\":4481:4617   */\n  pop\n    /* \"#utility.yul\":4428:4617   */\n  pop\n  pop\n  jump\t// out\n    /* \"#utility.yul\":4623:4809   */\ntag_39:\n    /* \"#utility.yul\":4683:4803   */\ntag_89:\n    /* \"#utility.yul\":4700:4703   */\n  dup2\n    /* \"#utility.yul\":4693:4698   */\n  dup2\n    /* \"#utility.yul\":4690:4704   */\n  lt\n    /* \"#utility.yul\":4683:4803   */\n  iszero\n  tag_91\n  jumpi\n    /* \"#utility.yul\":4754:4793   */\n  tag_92\n    /* \"#utility.yul\":4791:4792   */\n  0x00\n    /* \"#utility.yul\":4784:4789   */\n  dup3\n    /* \"#utility.yul\":4754:4793   */\n  tag_38\n  jump\t// in\ntag_92:\n    /* \"#utility.yul\":4727:4728   */\n  0x01\n    /* \"#utility.yul\":4720:4725   */\n  dup2\n    /* \"#utility.yul\":4716:4729   */\n  add\n    /* \"#utility.yul\":4707:4729   */\n  swap1\n  pop\n    /* \"#utility.yul\":4683:4803   */\n  jump(tag_89)\ntag_91:\n    /* \"#utility.yul\":4623:4809   */\n  pop\n  pop\n  jump\t// out\n    /* \"#utility.yul\":4815:5358   */\ntag_40:\n    /* \"#utility.yul\":4916:4918   */\n  0x1f\n    /* \"#utility.yul\":4911:4914   */\n  dup3\n    /* \"#utility.yul\":4908:4919   */\n  gt\n    /* \"#utility.yul\":4905:5351   */\n  iszero\n  tag_94\n  jumpi\n    /* \"#utility.yul\":4950:4988   */\n  tag_95\n    /* \"#utility.yul\":4982:4987   */\n  dup2\n    /* \"#utility.yul\":4950:4988   */\n  tag_28\n  jump\t// in\ntag_95:\n    /* \"#utility.yul\":5034:5063   */\n  tag_96\n    /* \"#utility.yul\":5052:5062   */\n  dup5\n    /* \"#utility.yul\":5034:5063   */\n  tag_29\n  jump\t// in\ntag_96:\n    /* \"#utility.yul\":5024:5032   */\n  dup2\n    /* \"#utility.yul\":5020:5064   */\n  add\n    /* \"#utility.yul\":5217:5219   */\n  0x20\n    /* \"#utility.yul\":5205:5215   */\n  dup6\n    /* \"#utility.yul\":5202:5220   */\n  lt\n    /* \"#utility.yul\":5199:5248   */\n  iszero\n  tag_97\n  jumpi\n    /* \"#utility.yul\":5238:5246   */\n  dup2\n    /* \"#utility.yul\":5223:5246   */\n  swap1\n  pop\n    /* \"#utility.yul\":5199:5248   */\ntag_97:\n    /* \"#utility.yul\":5261:5341   */\n  tag_98\n    /* \"#utility.yul\":5317:5339   */\n  tag_99\n    /* \"#utility.yul\":5335:5338   */\n  dup6\n    /* \"#utility.yul\":5317:5339   */\n  tag_29\n  jump\t// in\ntag_99:\n    /* \"#utility.yul\":5307:5315   */\n  dup4\n    /* \"#utility.yul\":5303:5340   */\n  add\n    /* \"#utility.yul\":5290:5301   */\n  dup3\n    /* \"#utility.yul\":5261:5341   */\n  tag_39\n  jump\t// in\ntag_98:\n    /* \"#utility.yul\":4920:5351   */\n  pop\n  pop\n    /* \"#utility.yul\":4905:5351   */\ntag_94:\n    /* \"#utility.yul\":4815:5358   */\n  pop\n  pop\n  pop\n  jump\t// out\n    /* \"#utility.yul\":5364:5481   */\ntag_41:\n    /* \"#utility.yul\":5418:5426   */\n  0x00\n    /* \"#utility.yul\":5468:5473   */\n  dup3\n    /* \"#utility.yul\":5462:5466   */\n  dup3\n    /* \"#utility.yul\":5458:5474   */\n  shr\n    /* \"#utility.yul\":5437:5474   */\n  swap1\n  pop\n    /* \"#utility.yul\":5364:5481   */\n  swap3\n  swap2\n  pop\n  pop\n  jump\t// out\n    /* \"#utility.yul\":5487:5656   */\ntag_42:\n    /* \"#utility.yul\":5531:5537   */\n  0x00\n    /* \"#utility.yul\":5564:5615   */\n  tag_102\n    /* \"#utility.yul\":5612:5613   */\n  0x00\n    /* \"#utility.yul\":5608:5614   */\n  not\n    /* \"#utility.yul\":5600:5605   */\n  dup5\n    /* \"#utility.yul\":5597:5598   */\n  0x08\n    /* \"#utility.yul\":5593:5606   */\n  mul\n    /* \"#utility.yul\":5564:5615   */\n  tag_41\n  jump\t// in\ntag_102:\n    /* \"#utility.yul\":5560:5616   */\n  not\n    /* \"#utility.yul\":5645:5649   */\n  dup1\n    /* \"#utility.yul\":5639:5643   */\n  dup4\n    /* \"#utility.yul\":5635:5650   */\n  and\n    /* \"#utility.yul\":5625:5650   */\n  swap2\n  pop\n    /* \"#utility.yul\":5538:5656   */\n  pop\n    /* \"#utility.yul\":5487:5656   */\n  swap3\n  swap2\n  pop\n  pop\n  jump\t// out\n    /* \"#utility.yul\":5661:5956   */\ntag_43:\n    /* \"#utility.yul\":5737:5741   */\n  0x00\n    /* \"#utility.yul\":5883:5912   */\n  tag_104\n    /* \"#utility.yul\":5908:5911   */\n  dup4\n    /* \"#utility.yul\":5902:5906   */\n  dup4\n    /* \"#utility.yul\":5883:5912   */\n  tag_42\n  jump\t// in\ntag_104:\n    /* \"#utility.yul\":5875:5912   */\n  swap2\n  pop\n    /* \"#utility.yul\":5945:5948   */\n  dup3\n    /* \"#utility.yul\":5942:5943   */\n  0x02\n    /* \"#utility.yul\":5938:5949   */\n  mul\n    /* \"#utility.yul\":5932:5936   */\n  dup3\n    /* \"#utility.yul\":5929:5950   */\n  or\n    /* \"#utility.yul\":5921:5950   */\n  swap1\n  pop\n    /* \"#utility.yul\":5661:5956   */\n  swap3\n  swap2\n  pop\n  pop\n  jump\t// out\n    /* \"#utility.yul\":5961:7356   */\ntag_17:\n    /* \"#utility.yul\":6078:6115   */\n  tag_106\n    /* \"#utility.yul\":6111:6114   */\n  dup3\n    /* \"#utility.yul\":6078:6115   */\n  tag_18\n  jump\t// in\ntag_106:\n    /* \"#utility.yul\":6180:6198   */\n  0xffffffffffffffff\n    /* \"#utility.yul\":6172:6178   */\n  dup2\n    /* \"#utility.yul\":6169:6199   */\n  gt\n    /* \"#utility.yul\":6166:6222   */\n  iszero\n  tag_107\n  jumpi\n    /* \"#utility.yul\":6202:6220   */\n  tag_108\n  tag_25\n  jump\t// in\ntag_108:\n    /* \"#utility.yul\":6166:6222   */\ntag_107:\n    /* \"#utility.yul\":6246:6284   */\n  tag_109\n    /* \"#utility.yul\":6278:6282   */\n  dup3\n    /* \"#utility.yul\":6272:6283   */\n  sload\n    /* \"#utility.yul\":6246:6284   */\n  tag_27\n  jump\t// in\ntag_109:\n    /* \"#utility.yul\":6331:6398   */\n  tag_110\n    /* \"#utility.yul\":6391:6397   */\n  dup3\n    /* \"#utility.yul\":6383:6389   */\n  dup3\n    /* \"#utility.yul\":6377:6381   */\n  dup6\n    /* \"#utility.yul\":6331:6398   */\n  tag_40\n  jump\t// in\ntag_110:\n    /* \"#utility.yul\":6425:6426   */\n  0x00\n    /* \"#utility.yul\":6449:6453   */\n  0x20\n    /* \"#utility.yul\":6436:6453   */\n  swap1\n  pop\n    /* \"#utility.yul\":6481:6483   */\n  0x1f\n    /* \"#utility.yul\":6473:6479   */\n  dup4\n    /* \"#utility.yul\":6470:6484   */\n  gt\n    /* \"#utility.yul\":6498:6499   */\n  0x01\n    /* \"#utility.yul\":6493:7111   */\n  dup2\n  eq\n  tag_112\n  jumpi\n    /* \"#utility.yul\":7155:7156   */\n  0x00\n    /* \"#utility.yul\":7172:7178   */\n  dup5\n    /* \"#utility.yul\":7169:7246   */\n  iszero\n  tag_113\n  jumpi\n    /* \"#utility.yul\":7221:7230   */\n  dup3\n    /* \"#utility.yul\":7216:7219   */\n  dup8\n    /* \"#utility.yul\":7212:7231   */\n  add\n    /* \"#utility.yul\":7206:7232   */\n  mload\n    /* \"#utility.yul\":7197:7232   */\n  swap1\n  pop\n    /* \"#utility.yul\":7169:7246   */\ntag_113:\n    /* \"#utility.yul\":7272:7339   */\n  tag_114\n    /* \"#utility.yul\":7332:7338   */\n  dup6\n    /* \"#utility.yul\":7325:7330   */\n  dup3\n    /* \"#utility.yul\":7272:7339   */\n  tag_43\n  jump\t// in\ntag_114:\n    /* \"#utility.yul\":7266:7270   */\n  dup7\n    /* \"#utility.yul\":7259:7340   */\n  sstore\n    /* \"#utility.yul\":7128:7350   */\n  pop\n    /* \"#utility.yul\":6463:7350   */\n  jump(tag_111)\n    /* \"#utility.yul\":6493:7111   */\ntag_112:\n    /* \"#utility.yul\":6545:6549   */\n  0x1f\n    /* \"#utility.yul\":6541:6550   */\n  not\n    /* \"#utility.yul\":6533:6539   */\n  dup5\n    /* \"#utility.yul\":6529:6551   */\n  and\n    /* \"#utility.yul\":6579:6616   */\n  tag_115\n    /* \"#utility.yul\":6611:6615   */\n  dup7\n    /* \"#utility.yul\":6579:6616   */\n  tag_28\n  jump\t// in\ntag_115:\n    /* \"#utility.yul\":6638:6639   */\n  0x00\n    /* \"#utility.yul\":6652:6860   */\ntag_116:\n    /* \"#utility.yul\":6666:6673   */\n  dup3\n    /* \"#utility.yul\":6663:6664   */\n  dup2\n    /* \"#utility.yul\":6660:6674   */\n  lt\n    /* \"#utility.yul\":6652:6860   */\n  iszero\n  tag_118\n  jumpi\n    /* \"#utility.yul\":6745:6754   */\n  dup5\n    /* \"#utility.yul\":6740:6743   */\n  dup10\n    /* \"#utility.yul\":6736:6755   */\n  add\n    /* \"#utility.yul\":6730:6756   */\n  mload\n    /* \"#utility.yul\":6722:6728   */\n  dup3\n    /* \"#utility.yul\":6715:6757   */\n  sstore\n    /* \"#utility.yul\":6796:6797   */\n  0x01\n    /* \"#utility.yul\":6788:6794   */\n  dup3\n    /* \"#utility.yul\":6784:6798   */\n  add\n    /* \"#utility.yul\":6774:6798   */\n  swap2\n  pop\n    /* \"#utility.yul\":6843:6845   */\n  0x20\n    /* \"#utility.yul\":6832:6841   */\n  dup6\n    /* \"#utility.yul\":6828:6846   */\n  add\n    /* \"#utility.yul\":6815:6846   */\n  swap5\n  pop\n    /* \"#utility.yul\":6689:6693   */\n  0x20\n    /* \"#utility.yul\":6686:6687   */\n  dup2\n    /* \"#utility.yul\":6682:6694   */\n  add\n    /* \"#utility.yul\":6677:6694   */\n  swap1\n  pop\n    /* \"#utility.yul\":6652:6860   */\n  jump(tag_116)\ntag_118:\n    /* \"#utility.yul\":6888:6894   */\n  dup7\n    /* \"#utility.yul\":6879:6886   */\n  dup4\n    /* \"#utility.yul\":6876:6895   */\n  lt\n    /* \"#utility.yul\":6873:7052   */\n  iszero\n  tag_119\n  jumpi\n    /* \"#utility.yul\":6946:6955   */\n  dup5\n    /* \"#utility.yul\":6941:6944   */\n  dup10\n    /* \"#utility.yul\":6937:6956   */\n  add\n    /* \"#utility.yul\":6931:6957   */\n  mload\n    /* \"#utility.yul\":6989:7037   */\n  tag_120\n    /* \"#utility.yul\":7031:7035   */\n  0x1f\n    /* \"#utility.yul\":7023:7029   */\n  dup10\n    /* \"#utility.yul\":7019:7036   */\n  and\n    /* \"#utility.yul\":7008:7017   */\n  dup3\n    /* \"#utility.yul\":6989:7037   */\n  tag_42\n  jump\t// in\ntag_120:\n    /* \"#utility.yul\":6981:6987   */\n  dup4\n    /* \"#utility.yul\":6974:7038   */\n  sstore\n    /* \"#utility.yul\":6896:7052   */\n  pop\n    /* \"#utility.yul\":6873:7052   */\ntag_119:\n    /* \"#utility.yul\":7098:7099   */\n  0x01\n    /* \"#utility.yul\":7094:7095   */\n  0x02\n    /* \"#utility.yul\":7086:7092   */\n  dup9\n    /* \"#utility.yul\":7082:7096   */\n  mul\n    /* \"#utility.yul\":7078:7100   */\n  add\n    /* \"#utility.yul\":7072:7076   */\n  dup9\n    /* \"#utility.yul\":7065:7101   */\n  sstore\n    /* \"#utility.yul\":6500:7111   */\n  pop\n  pop\n  pop\n    /* \"#utility.yul\":6463:7350   */\ntag_111:\n  pop\n    /* \"#utility.yul\":6053:7356   */\n  pop\n  pop\n  pop\n    /* \"#utility.yul\":5961:7356   */\n  pop\n  pop\n  jump\t// out\n    /* \"contracts/Voting.sol\":60:1387  contract VotingSystem {... */\ntag_8:\n  dataSize(sub_0)\n  dup1\n  dataOffset(sub_0)\n  0x00\n  codecopy\n  0x00\n  return\nstop\n\nsub_0: assembly {\n        /* \"contracts/Voting.sol\":60:1387  contract VotingSystem {... */\n      mstore(0x40, 0x80)\n      callvalue\n      dup1\n      iszero\n      tag_1\n      jumpi\n      0x00\n      dup1\n      revert\n    tag_1:\n      pop\n      jumpi(tag_2, lt(calldatasize, 0x04))\n      shr(0xe0, calldataload(0x00))\n      dup1\n      0x09eef43e\n      eq\n      tag_3\n      jumpi\n      dup1\n      0x0dc96015\n      eq\n      tag_4\n      jumpi\n      dup1\n      0x3477ee2e\n      eq\n      tag_5\n      jumpi\n      dup1\n      0xfc36e15b\n      eq\n      tag_6\n      jumpi\n    tag_2:\n      0x00\n      dup1\n      revert\n        /* \"contracts/Voting.sol\":269:309  mapping(address => bool) public hasVoted */\n    tag_3:\n      tag_7\n      0x04\n      dup1\n      calldatasize\n      sub\n      dup2\n      add\n      swap1\n      tag_8\n      swap2\n      swap1\n      tag_9\n      jump\t// in\n    tag_8:\n      tag_10\n      jump\t// in\n    tag_7:\n      mload(0x40)\n      tag_11\n      swap2\n      swap1\n      tag_12\n      jump\t// in\n    tag_11:\n      mload(0x40)\n      dup1\n      swap2\n      sub\n      swap1\n      return\n        /* \"contracts/Voting.sol\":1287:1384  function getVotes() public view returns (Candidate[] memory) {... */\n    tag_4:\n      tag_13\n      tag_14\n      jump\t// in\n    tag_13:\n      mload(0x40)\n      tag_15\n      swap2\n      swap1\n      tag_16\n      jump\t// in\n    tag_15:\n      mload(0x40)\n      dup1\n      swap2\n      sub\n      swap1\n      return\n        /* \"contracts/Voting.sol\":233:262  Candidate[] public candidates */\n    tag_5:\n      tag_17\n      0x04\n      dup1\n      calldatasize\n      sub\n      dup2\n      add\n      swap1\n      tag_18\n      swap2\n      swap1\n      tag_19\n      jump\t// in\n    tag_18:\n      tag_20\n      jump\t// in\n    tag_17:\n      mload(0x40)\n      tag_21\n      swap3\n      swap2\n      swap1\n      tag_22\n      jump\t// in\n    tag_21:\n      mload(0x40)\n      dup1\n      swap2\n      sub\n      swap1\n      return\n        /* \"contracts/Voting.sol\":764:1279  function vote(string memory _nameOfCandidate) public returns (string memory) {... */\n    tag_6:\n      tag_23\n      0x04\n      dup1\n      calldatasize\n      sub\n      dup2\n      add\n      swap1\n      tag_24\n      swap2\n      swap1\n      tag_25\n      jump\t// in\n    tag_24:\n      tag_26\n      jump\t// in\n    tag_23:\n      mload(0x40)\n      tag_27\n      swap2\n      swap1\n      tag_28\n      jump\t// in\n    tag_27:\n      mload(0x40)\n      dup1\n      swap2\n      sub\n      swap1\n      return\n        /* \"contracts/Voting.sol\":269:309  mapping(address => bool) public hasVoted */\n    tag_10:\n      mstore(0x20, 0x02)\n      dup1\n      0x00\n      mstore\n      keccak256(0x00, 0x40)\n      0x00\n      swap2\n      pop\n      sload\n      swap1\n      0x0100\n      exp\n      swap1\n      div\n      0xff\n      and\n      dup2\n      jump\t// out\n        /* \"contracts/Voting.sol\":1287:1384  function getVotes() public view returns (Candidate[] memory) {... */\n    tag_14:\n        /* \"contracts/Voting.sol\":1328:1346  Candidate[] memory */\n      0x60\n        /* \"contracts/Voting.sol\":1366:1376  candidates */\n      0x01\n        /* \"contracts/Voting.sol\":1359:1376  return candidates */\n      dup1\n      sload\n      dup1\n      0x20\n      mul\n      0x20\n      add\n      mload(0x40)\n      swap1\n      dup2\n      add\n      0x40\n      mstore\n      dup1\n      swap3\n      swap2\n      swap1\n      dup2\n      dup2\n      mstore\n      0x20\n      add\n      0x00\n      swap1\n    tag_30:\n      dup3\n      dup3\n      lt\n      iszero\n      tag_31\n      jumpi\n      dup4\n      dup3\n      swap1\n      0x00\n      mstore\n      keccak256(0x00, 0x20)\n      swap1\n      0x02\n      mul\n      add\n      mload(0x40)\n      dup1\n      0x40\n      add\n      0x40\n      mstore\n      swap1\n      dup2\n      0x00\n      dup3\n      add\n      dup1\n      sload\n      tag_33\n      swap1\n      tag_34\n      jump\t// in\n    tag_33:\n      dup1\n      0x1f\n      add\n      0x20\n      dup1\n      swap2\n      div\n      mul\n      0x20\n      add\n      mload(0x40)\n      swap1\n      dup2\n      add\n      0x40\n      mstore\n      dup1\n      swap3\n      swap2\n      swap1\n      dup2\n      dup2\n      mstore\n      0x20\n      add\n      dup3\n      dup1\n      sload\n      tag_35\n      swap1\n      tag_34\n      jump\t// in\n    tag_35:\n      dup1\n      iszero\n      tag_36\n      jumpi\n      dup1\n      0x1f\n      lt\n      tag_37\n      jumpi\n      0x0100\n      dup1\n      dup4\n      sload\n      div\n      mul\n      dup4\n      mstore\n      swap2\n      0x20\n      add\n      swap2\n      jump(tag_36)\n    tag_37:\n      dup3\n      add\n      swap2\n      swap1\n      0x00\n      mstore\n      keccak256(0x00, 0x20)\n      swap1\n    tag_38:\n      dup2\n      sload\n      dup2\n      mstore\n      swap1\n      0x01\n      add\n      swap1\n      0x20\n      add\n      dup1\n      dup4\n      gt\n      tag_38\n      jumpi\n      dup3\n      swap1\n      sub\n      0x1f\n      and\n      dup3\n      add\n      swap2\n    tag_36:\n      pop\n      pop\n      pop\n      pop\n      pop\n      dup2\n      mstore\n      0x20\n      add\n      0x01\n      dup3\n      add\n      sload\n      dup2\n      mstore\n      pop\n      pop\n      dup2\n      mstore\n      0x20\n      add\n      swap1\n      0x01\n      add\n      swap1\n      jump(tag_30)\n    tag_31:\n      pop\n      pop\n      pop\n      pop\n      swap1\n      pop\n        /* \"contracts/Voting.sol\":1287:1384  function getVotes() public view returns (Candidate[] memory) {... */\n      swap1\n      jump\t// out\n        /* \"contracts/Voting.sol\":233:262  Candidate[] public candidates */\n    tag_20:\n      0x01\n      dup2\n      dup2\n      sload\n      dup2\n      lt\n      tag_39\n      jumpi\n      0x00\n      dup1\n      revert\n    tag_39:\n      swap1\n      0x00\n      mstore\n      keccak256(0x00, 0x20)\n      swap1\n      0x02\n      mul\n      add\n      0x00\n      swap2\n      pop\n      swap1\n      pop\n      dup1\n      0x00\n      add\n      dup1\n      sload\n      tag_41\n      swap1\n      tag_34\n      jump\t// in\n    tag_41:\n      dup1\n      0x1f\n      add\n      0x20\n      dup1\n      swap2\n      div\n      mul\n      0x20\n      add\n      mload(0x40)\n      swap1\n      dup2\n      add\n      0x40\n      mstore\n      dup1\n      swap3\n      swap2\n      swap1\n      dup2\n      dup2\n      mstore\n      0x20\n      add\n      dup3\n      dup1\n      sload\n      tag_42\n      swap1\n      tag_34\n      jump\t// in\n    tag_42:\n      dup1\n      iszero\n      tag_43\n      jumpi\n      dup1\n      0x1f\n      lt\n      tag_44\n      jumpi\n      0x0100\n      dup1\n      dup4\n      sload\n      div\n      mul\n      dup4\n      mstore\n      swap2\n      0x20\n      add\n      swap2\n      jump(tag_43)\n    tag_44:\n      dup3\n      add\n      swap2\n      swap1\n      0x00\n      mstore\n      keccak256(0x00, 0x20)\n      swap1\n    tag_45:\n      dup2\n      sload\n      dup2\n      mstore\n      swap1\n      0x01\n      add\n      swap1\n      0x20\n      add\n      dup1\n      dup4\n      gt\n      tag_45\n      jumpi\n      dup3\n      swap1\n      sub\n      0x1f\n      and\n      dup3\n      add\n      swap2\n    tag_43:\n      pop\n      pop\n      pop\n      pop\n      pop\n      swap1\n      dup1\n      0x01\n      add\n      sload\n      swap1\n      pop\n      dup3\n      jump\t// out\n        /* \"contracts/Voting.sol\":764:1279  function vote(string memory _nameOfCandidate) public returns (string memory) {... */\n    tag_26:\n        /* \"contracts/Voting.sol\":826:839  string memory */\n      0x60\n        /* \"contracts/Voting.sol\":861:869  hasVoted */\n      0x02\n        /* \"contracts/Voting.sol\":861:881  hasVoted[msg.sender] */\n      0x00\n        /* \"contracts/Voting.sol\":870:880  msg.sender */\n      caller\n        /* \"contracts/Voting.sol\":861:881  hasVoted[msg.sender] */\n      0xffffffffffffffffffffffffffffffffffffffff\n      and\n      0xffffffffffffffffffffffffffffffffffffffff\n      and\n      dup2\n      mstore\n      0x20\n      add\n      swap1\n      dup2\n      mstore\n      0x20\n      add\n      0x00\n      keccak256\n      0x00\n      swap1\n      sload\n      swap1\n      0x0100\n      exp\n      swap1\n      div\n      0xff\n      and\n        /* \"contracts/Voting.sol\":860:881  !hasVoted[msg.sender] */\n      iszero\n        /* \"contracts/Voting.sol\":852:908  require(!hasVoted[msg.sender], \"You have already voted\") */\n      tag_47\n      jumpi\n      mload(0x40)\n      0x08c379a000000000000000000000000000000000000000000000000000000000\n      dup2\n      mstore\n      0x04\n      add\n      tag_48\n      swap1\n      tag_49\n      jump\t// in\n    tag_48:\n      mload(0x40)\n      dup1\n      swap2\n      sub\n      swap1\n      revert\n    tag_47:\n        /* \"contracts/Voting.sol\":929:945  bytes32 nameHash */\n      0x00\n        /* \"contracts/Voting.sol\":975:991  _nameOfCandidate */\n      dup3\n        /* \"contracts/Voting.sol\":958:992  abi.encodePacked(_nameOfCandidate) */\n      add(0x20, mload(0x40))\n      tag_50\n      swap2\n      swap1\n      tag_51\n      jump\t// in\n    tag_50:\n      mload(0x40)\n      0x20\n      dup2\n      dup4\n      sub\n      sub\n      dup2\n      mstore\n      swap1\n      0x40\n      mstore\n        /* \"contracts/Voting.sol\":948:993  keccak256(abi.encodePacked(_nameOfCandidate)) */\n      dup1\n      mload\n      swap1\n      0x20\n      add\n      keccak256\n        /* \"contracts/Voting.sol\":929:993  bytes32 nameHash = keccak256(abi.encodePacked(_nameOfCandidate)) */\n      swap1\n      pop\n        /* \"contracts/Voting.sol\":1004:1017  uint256 index */\n      0x00\n        /* \"contracts/Voting.sol\":1020:1034  candidateIndex */\n      dup1\n        /* \"contracts/Voting.sol\":1020:1044  candidateIndex[nameHash] */\n      0x00\n        /* \"contracts/Voting.sol\":1035:1043  nameHash */\n      dup4\n        /* \"contracts/Voting.sol\":1020:1044  candidateIndex[nameHash] */\n      dup2\n      mstore\n      0x20\n      add\n      swap1\n      dup2\n      mstore\n      0x20\n      add\n      0x00\n      keccak256\n      sload\n        /* \"contracts/Voting.sol\":1004:1044  uint256 index = candidateIndex[nameHash] */\n      swap1\n      pop\n        /* \"contracts/Voting.sol\":1081:1082  0 */\n      0x00\n        /* \"contracts/Voting.sol\":1073:1078  index */\n      dup2\n        /* \"contracts/Voting.sol\":1073:1082  index > 0 */\n      gt\n        /* \"contracts/Voting.sol\":1065:1109  require(index > 0, \"Invalid candidate name\") */\n      tag_52\n      jumpi\n      mload(0x40)\n      0x08c379a000000000000000000000000000000000000000000000000000000000\n      dup2\n      mstore\n      0x04\n      add\n      tag_53\n      swap1\n      tag_54\n      jump\t// in\n    tag_53:\n      mload(0x40)\n      dup1\n      swap2\n      sub\n      swap1\n      revert\n    tag_52:\n        /* \"contracts/Voting.sol\":1130:1140  candidates */\n      0x01\n        /* \"contracts/Voting.sol\":1149:1150  1 */\n      dup1\n        /* \"contracts/Voting.sol\":1141:1146  index */\n      dup3\n        /* \"contracts/Voting.sol\":1141:1150  index - 1 */\n      tag_55\n      swap2\n      swap1\n      tag_56\n      jump\t// in\n    tag_55:\n        /* \"contracts/Voting.sol\":1130:1151  candidates[index - 1] */\n      dup2\n      sload\n      dup2\n      lt\n      tag_57\n      jumpi\n      tag_58\n      tag_59\n      jump\t// in\n    tag_58:\n    tag_57:\n      swap1\n      0x00\n      mstore\n      keccak256(0x00, 0x20)\n      swap1\n      0x02\n      mul\n      add\n        /* \"contracts/Voting.sol\":1130:1165  candidates[index - 1].numberOfVotes */\n      0x01\n      add\n      0x00\n        /* \"contracts/Voting.sol\":1130:1167  candidates[index - 1].numberOfVotes++ */\n      dup2\n      sload\n      dup1\n      swap3\n      swap2\n      swap1\n      tag_61\n      swap1\n      tag_62\n      jump\t// in\n    tag_61:\n      swap2\n      swap1\n      pop\n      sstore\n      pop\n        /* \"contracts/Voting.sol\":1201:1205  true */\n      0x01\n        /* \"contracts/Voting.sol\":1178:1186  hasVoted */\n      0x02\n        /* \"contracts/Voting.sol\":1178:1198  hasVoted[msg.sender] */\n      0x00\n        /* \"contracts/Voting.sol\":1187:1197  msg.sender */\n      caller\n        /* \"contracts/Voting.sol\":1178:1198  hasVoted[msg.sender] */\n      0xffffffffffffffffffffffffffffffffffffffff\n      and\n      0xffffffffffffffffffffffffffffffffffffffff\n      and\n      dup2\n      mstore\n      0x20\n      add\n      swap1\n      dup2\n      mstore\n      0x20\n      add\n      0x00\n      keccak256\n      0x00\n        /* \"contracts/Voting.sol\":1178:1205  hasVoted[msg.sender] = true */\n      0x0100\n      exp\n      dup2\n      sload\n      dup2\n      0xff\n      mul\n      not\n      and\n      swap1\n      dup4\n      iszero\n      iszero\n      mul\n      or\n      swap1\n      sstore\n      pop\n        /* \"contracts/Voting.sol\":1226:1271  return \"You have successfully cast your vote\" */\n      mload(0x40)\n      dup1\n      0x60\n      add\n      0x40\n      mstore\n      dup1\n      0x24\n      dup2\n      mstore\n      0x20\n      add\n      data_3165b2f071da36ab6bb70fcda2aea2cbf3f697b9a5959fab1eac9a92bde1afba\n      0x24\n      swap2\n      codecopy\n      swap3\n      pop\n      pop\n      pop\n        /* \"contracts/Voting.sol\":764:1279  function vote(string memory _nameOfCandidate) public returns (string memory) {... */\n      swap2\n      swap1\n      pop\n      jump\t// out\n        /* \"#utility.yul\":7:82   */\n    tag_63:\n        /* \"#utility.yul\":40:46   */\n      0x00\n        /* \"#utility.yul\":73:75   */\n      0x40\n        /* \"#utility.yul\":67:76   */\n      mload\n        /* \"#utility.yul\":57:76   */\n      swap1\n      pop\n        /* \"#utility.yul\":7:82   */\n      swap1\n      jump\t// out\n        /* \"#utility.yul\":88:205   */\n    tag_64:\n        /* \"#utility.yul\":197:198   */\n      0x00\n        /* \"#utility.yul\":194:195   */\n      dup1\n        /* \"#utility.yul\":187:199   */\n      revert\n        /* \"#utility.yul\":211:328   */\n    tag_65:\n        /* \"#utility.yul\":320:321   */\n      0x00\n        /* \"#utility.yul\":317:318   */\n      dup1\n        /* \"#utility.yul\":310:322   */\n      revert\n        /* \"#utility.yul\":334:460   */\n    tag_66:\n        /* \"#utility.yul\":371:378   */\n      0x00\n        /* \"#utility.yul\":411:453   */\n      0xffffffffffffffffffffffffffffffffffffffff\n        /* \"#utility.yul\":404:409   */\n      dup3\n        /* \"#utility.yul\":400:454   */\n      and\n        /* \"#utility.yul\":389:454   */\n      swap1\n      pop\n        /* \"#utility.yul\":334:460   */\n      swap2\n      swap1\n      pop\n      jump\t// out\n        /* \"#utility.yul\":466:562   */\n    tag_67:\n        /* \"#utility.yul\":503:510   */\n      0x00\n        /* \"#utility.yul\":532:556   */\n      tag_114\n        /* \"#utility.yul\":550:555   */\n      dup3\n        /* \"#utility.yul\":532:556   */\n      tag_66\n      jump\t// in\n    tag_114:\n        /* \"#utility.yul\":521:556   */\n      swap1\n      pop\n        /* \"#utility.yul\":466:562   */\n      swap2\n      swap1\n      pop\n      jump\t// out\n        /* \"#utility.yul\":568:690   */\n    tag_68:\n        /* \"#utility.yul\":641:665   */\n      tag_116\n        /* \"#utility.yul\":659:664   */\n      dup2\n        /* \"#utility.yul\":641:665   */\n      tag_67\n      jump\t// in\n    tag_116:\n        /* \"#utility.yul\":634:639   */\n      dup2\n        /* \"#utility.yul\":631:666   */\n      eq\n        /* \"#utility.yul\":621:684   */\n      tag_117\n      jumpi\n        /* \"#utility.yul\":680:681   */\n      0x00\n        /* \"#utility.yul\":677:678   */\n      dup1\n        /* \"#utility.yul\":670:682   */\n      revert\n        /* \"#utility.yul\":621:684   */\n    tag_117:\n        /* \"#utility.yul\":568:690   */\n      pop\n      jump\t// out\n        /* \"#utility.yul\":696:835   */\n    tag_69:\n        /* \"#utility.yul\":742:747   */\n      0x00\n        /* \"#utility.yul\":780:786   */\n      dup2\n        /* \"#utility.yul\":767:787   */\n      calldataload\n        /* \"#utility.yul\":758:787   */\n      swap1\n      pop\n        /* \"#utility.yul\":796:829   */\n      tag_119\n        /* \"#utility.yul\":823:828   */\n      dup2\n        /* \"#utility.yul\":796:829   */\n      tag_68\n      jump\t// in\n    tag_119:\n        /* \"#utility.yul\":696:835   */\n      swap3\n      swap2\n      pop\n      pop\n      jump\t// out\n        /* \"#utility.yul\":841:1170   */\n    tag_9:\n        /* \"#utility.yul\":900:906   */\n      0x00\n        /* \"#utility.yul\":949:951   */\n      0x20\n        /* \"#utility.yul\":937:946   */\n      dup3\n        /* \"#utility.yul\":928:935   */\n      dup5\n        /* \"#utility.yul\":924:947   */\n      sub\n        /* \"#utility.yul\":920:952   */\n      slt\n        /* \"#utility.yul\":917:1036   */\n      iszero\n      tag_121\n      jumpi\n        /* \"#utility.yul\":955:1034   */\n      tag_122\n      tag_64\n      jump\t// in\n    tag_122:\n        /* \"#utility.yul\":917:1036   */\n    tag_121:\n        /* \"#utility.yul\":1075:1076   */\n      0x00\n        /* \"#utility.yul\":1100:1153   */\n      tag_123\n        /* \"#utility.yul\":1145:1152   */\n      dup5\n        /* \"#utility.yul\":1136:1142   */\n      dup3\n        /* \"#utility.yul\":1125:1134   */\n      dup6\n        /* \"#utility.yul\":1121:1143   */\n      add\n        /* \"#utility.yul\":1100:1153   */\n      tag_69\n      jump\t// in\n    tag_123:\n        /* \"#utility.yul\":1090:1153   */\n      swap2\n      pop\n        /* \"#utility.yul\":1046:1163   */\n      pop\n        /* \"#utility.yul\":841:1170   */\n      swap3\n      swap2\n      pop\n      pop\n      jump\t// out\n        /* \"#utility.yul\":1176:1266   */\n    tag_70:\n        /* \"#utility.yul\":1210:1217   */\n      0x00\n        /* \"#utility.yul\":1253:1258   */\n      dup2\n        /* \"#utility.yul\":1246:1259   */\n      iszero\n        /* \"#utility.yul\":1239:1260   */\n      iszero\n        /* \"#utility.yul\":1228:1260   */\n      swap1\n      pop\n        /* \"#utility.yul\":1176:1266   */\n      swap2\n      swap1\n      pop\n      jump\t// out\n        /* \"#utility.yul\":1272:1381   */\n    tag_71:\n        /* \"#utility.yul\":1353:1374   */\n      tag_126\n        /* \"#utility.yul\":1368:1373   */\n      dup2\n        /* \"#utility.yul\":1353:1374   */\n      tag_70\n      jump\t// in\n    tag_126:\n        /* \"#utility.yul\":1348:1351   */\n      dup3\n        /* \"#utility.yul\":1341:1375   */\n      mstore\n        /* \"#utility.yul\":1272:1381   */\n      pop\n      pop\n      jump\t// out\n        /* \"#utility.yul\":1387:1597   */\n    tag_12:\n        /* \"#utility.yul\":1474:1478   */\n      0x00\n        /* \"#utility.yul\":1512:1514   */\n      0x20\n        /* \"#utility.yul\":1501:1510   */\n      dup3\n        /* \"#utility.yul\":1497:1515   */\n      add\n        /* \"#utility.yul\":1489:1515   */\n      swap1\n      pop\n        /* \"#utility.yul\":1525:1590   */\n      tag_128\n        /* \"#utility.yul\":1587:1588   */\n      0x00\n        /* \"#utility.yul\":1576:1585   */\n      dup4\n        /* \"#utility.yul\":1572:1589   */\n      add\n        /* \"#utility.yul\":1563:1569   */\n      dup5\n        /* \"#utility.yul\":1525:1590   */\n      tag_71\n      jump\t// in\n    tag_128:\n        /* \"#utility.yul\":1387:1597   */\n      swap3\n      swap2\n      pop\n      pop\n      jump\t// out\n        /* \"#utility.yul\":1603:1741   */\n    tag_72:\n        /* \"#utility.yul\":1694:1700   */\n      0x00\n        /* \"#utility.yul\":1728:1733   */\n      dup2\n        /* \"#utility.yul\":1722:1734   */\n      mload\n        /* \"#utility.yul\":1712:1734   */\n      swap1\n      pop\n        /* \"#utility.yul\":1603:1741   */\n      swap2\n      swap1\n      pop\n      jump\t// out\n        /* \"#utility.yul\":1747:1955   */\n    tag_73:\n        /* \"#utility.yul\":1870:1881   */\n      0x00\n        /* \"#utility.yul\":1904:1910   */\n      dup3\n        /* \"#utility.yul\":1899:1902   */\n      dup3\n        /* \"#utility.yul\":1892:1911   */\n      mstore\n        /* \"#utility.yul\":1944:1948   */\n      0x20\n        /* \"#utility.yul\":1939:1942   */\n      dup3\n        /* \"#utility.yul\":1935:1949   */\n      add\n        /* \"#utility.yul\":1920:1949   */\n      swap1\n      pop\n        /* \"#utility.yul\":1747:1955   */\n      swap3\n      swap2\n      pop\n      pop\n      jump\t// out\n        /* \"#utility.yul\":1961:2117   */\n    tag_74:\n        /* \"#utility.yul\":2052:2056   */\n      0x00\n        /* \"#utility.yul\":2075:2078   */\n      dup2\n        /* \"#utility.yul\":2067:2078   */\n      swap1\n      pop\n        /* \"#utility.yul\":2105:2109   */\n      0x20\n        /* \"#utility.yul\":2100:2103   */\n      dup3\n        /* \"#utility.yul\":2096:2110   */\n      add\n        /* \"#utility.yul\":2088:2110   */\n      swap1\n      pop\n        /* \"#utility.yul\":1961:2117   */\n      swap2\n      swap1\n      pop\n      jump\t// out\n        /* \"#utility.yul\":2123:2222   */\n    tag_75:\n        /* \"#utility.yul\":2175:2181   */\n      0x00\n        /* \"#utility.yul\":2209:2214   */\n      dup2\n        /* \"#utility.yul\":2203:2215   */\n      mload\n        /* \"#utility.yul\":2193:2215   */\n      swap1\n      pop\n        /* \"#utility.yul\":2123:2222   */\n      swap2\n      swap1\n      pop\n      jump\t// out\n        /* \"#utility.yul\":2228:2387   */\n    tag_76:\n        /* \"#utility.yul\":2302:2313   */\n      0x00\n        /* \"#utility.yul\":2336:2342   */\n      dup3\n        /* \"#utility.yul\":2331:2334   */\n      dup3\n        /* \"#utility.yul\":2324:2343   */\n      mstore\n        /* \"#utility.yul\":2376:2380   */\n      0x20\n        /* \"#utility.yul\":2371:2374   */\n      dup3\n        /* \"#utility.yul\":2367:2381   */\n      add\n        /* \"#utility.yul\":2352:2381   */\n      swap1\n      pop\n        /* \"#utility.yul\":2228:2387   */\n      swap3\n      swap2\n      pop\n      pop\n      jump\t// out\n        /* \"#utility.yul\":2393:2532   */\n    tag_77:\n        /* \"#utility.yul\":2482:2488   */\n      dup3\n        /* \"#utility.yul\":2477:2480   */\n      dup2\n        /* \"#utility.yul\":2472:2475   */\n      dup4\n        /* \"#utility.yul\":2466:2489   */\n      mcopy\n        /* \"#utility.yul\":2523:2524   */\n      0x00\n        /* \"#utility.yul\":2514:2520   */\n      dup4\n        /* \"#utility.yul\":2509:2512   */\n      dup4\n        /* \"#utility.yul\":2505:2521   */\n      add\n        /* \"#utility.yul\":2498:2525   */\n      mstore\n        /* \"#utility.yul\":2393:2532   */\n      pop\n      pop\n      pop\n      jump\t// out\n        /* \"#utility.yul\":2538:2640   */\n    tag_78:\n        /* \"#utility.yul\":2579:2585   */\n      0x00\n        /* \"#utility.yul\":2630:2632   */\n      0x1f\n        /* \"#utility.yul\":2626:2633   */\n      not\n        /* \"#utility.yul\":2621:2623   */\n      0x1f\n        /* \"#utility.yul\":2614:2619   */\n      dup4\n        /* \"#utility.yul\":2610:2624   */\n      add\n        /* \"#utility.yul\":2606:2634   */\n      and\n        /* \"#utility.yul\":2596:2634   */\n      swap1\n      pop\n        /* \"#utility.yul\":2538:2640   */\n      swap2\n      swap1\n      pop\n      jump\t// out\n        /* \"#utility.yul\":2646:3003   */\n    tag_79:\n        /* \"#utility.yul\":2724:2727   */\n      0x00\n        /* \"#utility.yul\":2752:2791   */\n      tag_137\n        /* \"#utility.yul\":2785:2790   */\n      dup3\n        /* \"#utility.yul\":2752:2791   */\n      tag_75\n      jump\t// in\n    tag_137:\n        /* \"#utility.yul\":2807:2868   */\n      tag_138\n        /* \"#utility.yul\":2861:2867   */\n      dup2\n        /* \"#utility.yul\":2856:2859   */\n      dup6\n        /* \"#utility.yul\":2807:2868   */\n      tag_76\n      jump\t// in\n    tag_138:\n        /* \"#utility.yul\":2800:2868   */\n      swap4\n      pop\n        /* \"#utility.yul\":2877:2942   */\n      tag_139\n        /* \"#utility.yul\":2935:2941   */\n      dup2\n        /* \"#utility.yul\":2930:2933   */\n      dup6\n        /* \"#utility.yul\":2923:2927   */\n      0x20\n        /* \"#utility.yul\":2916:2921   */\n      dup7\n        /* \"#utility.yul\":2912:2928   */\n      add\n        /* \"#utility.yul\":2877:2942   */\n      tag_77\n      jump\t// in\n    tag_139:\n        /* \"#utility.yul\":2967:2996   */\n      tag_140\n        /* \"#utility.yul\":2989:2995   */\n      dup2\n        /* \"#utility.yul\":2967:2996   */\n      tag_78\n      jump\t// in\n    tag_140:\n        /* \"#utility.yul\":2962:2965   */\n      dup5\n        /* \"#utility.yul\":2958:2997   */\n      add\n        /* \"#utility.yul\":2951:2997   */\n      swap2\n      pop\n        /* \"#utility.yul\":2728:3003   */\n      pop\n        /* \"#utility.yul\":2646:3003   */\n      swap3\n      swap2\n      pop\n      pop\n      jump\t// out\n        /* \"#utility.yul\":3009:3086   */\n    tag_80:\n        /* \"#utility.yul\":3046:3053   */\n      0x00\n        /* \"#utility.yul\":3075:3080   */\n      dup2\n        /* \"#utility.yul\":3064:3080   */\n      swap1\n      pop\n        /* \"#utility.yul\":3009:3086   */\n      swap2\n      swap1\n      pop\n      jump\t// out\n        /* \"#utility.yul\":3092:3200   */\n    tag_81:\n        /* \"#utility.yul\":3169:3193   */\n      tag_143\n        /* \"#utility.yul\":3187:3192   */\n      dup2\n        /* \"#utility.yul\":3169:3193   */\n      tag_80\n      jump\t// in\n    tag_143:\n        /* \"#utility.yul\":3164:3167   */\n      dup3\n        /* \"#utility.yul\":3157:3194   */\n      mstore\n        /* \"#utility.yul\":3092:3200   */\n      pop\n      pop\n      jump\t// out\n        /* \"#utility.yul\":3276:3879   */\n    tag_82:\n        /* \"#utility.yul\":3383:3386   */\n      0x00\n        /* \"#utility.yul\":3419:3423   */\n      0x40\n        /* \"#utility.yul\":3414:3417   */\n      dup4\n        /* \"#utility.yul\":3410:3424   */\n      add\n        /* \"#utility.yul\":3506:3510   */\n      0x00\n        /* \"#utility.yul\":3499:3504   */\n      dup4\n        /* \"#utility.yul\":3495:3511   */\n      add\n        /* \"#utility.yul\":3489:3512   */\n      mload\n        /* \"#utility.yul\":3559:3562   */\n      dup5\n        /* \"#utility.yul\":3553:3557   */\n      dup3\n        /* \"#utility.yul\":3549:3563   */\n      sub\n        /* \"#utility.yul\":3542:3546   */\n      0x00\n        /* \"#utility.yul\":3537:3540   */\n      dup7\n        /* \"#utility.yul\":3533:3547   */\n      add\n        /* \"#utility.yul\":3526:3564   */\n      mstore\n        /* \"#utility.yul\":3585:3658   */\n      tag_145\n        /* \"#utility.yul\":3653:3657   */\n      dup3\n        /* \"#utility.yul\":3639:3651   */\n      dup3\n        /* \"#utility.yul\":3585:3658   */\n      tag_79\n      jump\t// in\n    tag_145:\n        /* \"#utility.yul\":3577:3658   */\n      swap2\n      pop\n        /* \"#utility.yul\":3434:3669   */\n      pop\n        /* \"#utility.yul\":3760:3764   */\n      0x20\n        /* \"#utility.yul\":3753:3758   */\n      dup4\n        /* \"#utility.yul\":3749:3765   */\n      add\n        /* \"#utility.yul\":3743:3766   */\n      mload\n        /* \"#utility.yul\":3779:3842   */\n      tag_146\n        /* \"#utility.yul\":3836:3840   */\n      0x20\n        /* \"#utility.yul\":3831:3834   */\n      dup7\n        /* \"#utility.yul\":3827:3841   */\n      add\n        /* \"#utility.yul\":3813:3825   */\n      dup3\n        /* \"#utility.yul\":3779:3842   */\n      tag_81\n      jump\t// in\n    tag_146:\n        /* \"#utility.yul\":3679:3852   */\n      pop\n        /* \"#utility.yul\":3869:3873   */\n      dup1\n        /* \"#utility.yul\":3862:3873   */\n      swap2\n      pop\n        /* \"#utility.yul\":3388:3879   */\n      pop\n        /* \"#utility.yul\":3276:3879   */\n      swap3\n      swap2\n      pop\n      pop\n      jump\t// out\n        /* \"#utility.yul\":3885:4137   */\n    tag_83:\n        /* \"#utility.yul\":4002:4012   */\n      0x00\n        /* \"#utility.yul\":4037:4131   */\n      tag_148\n        /* \"#utility.yul\":4127:4130   */\n      dup4\n        /* \"#utility.yul\":4119:4125   */\n      dup4\n        /* \"#utility.yul\":4037:4131   */\n      tag_82\n      jump\t// in\n    tag_148:\n        /* \"#utility.yul\":4023:4131   */\n      swap1\n      pop\n        /* \"#utility.yul\":3885:4137   */\n      swap3\n      swap2\n      pop\n      pop\n      jump\t// out\n        /* \"#utility.yul\":4143:4280   */\n    tag_84:\n        /* \"#utility.yul\":4237:4241   */\n      0x00\n        /* \"#utility.yul\":4269:4273   */\n      0x20\n        /* \"#utility.yul\":4264:4267   */\n      dup3\n        /* \"#utility.yul\":4260:4274   */\n      add\n        /* \"#utility.yul\":4252:4274   */\n      swap1\n      pop\n        /* \"#utility.yul\":4143:4280   */\n      swap2\n      swap1\n      pop\n      jump\t// out\n        /* \"#utility.yul\":4360:5463   */\n    tag_85:\n        /* \"#utility.yul\":4527:4530   */\n      0x00\n        /* \"#utility.yul\":4556:4634   */\n      tag_151\n        /* \"#utility.yul\":4628:4633   */\n      dup3\n        /* \"#utility.yul\":4556:4634   */\n      tag_72\n      jump\t// in\n    tag_151:\n        /* \"#utility.yul\":4650:4760   */\n      tag_152\n        /* \"#utility.yul\":4753:4759   */\n      dup2\n        /* \"#utility.yul\":4748:4751   */\n      dup6\n        /* \"#utility.yul\":4650:4760   */\n      tag_73\n      jump\t// in\n    tag_152:\n        /* \"#utility.yul\":4643:4760   */\n      swap4\n      pop\n        /* \"#utility.yul\":4786:4789   */\n      dup4\n        /* \"#utility.yul\":4831:4835   */\n      0x20\n        /* \"#utility.yul\":4823:4829   */\n      dup3\n        /* \"#utility.yul\":4819:4836   */\n      mul\n        /* \"#utility.yul\":4814:4817   */\n      dup6\n        /* \"#utility.yul\":4810:4837   */\n      add\n        /* \"#utility.yul\":4861:4941   */\n      tag_153\n        /* \"#utility.yul\":4935:4940   */\n      dup6\n        /* \"#utility.yul\":4861:4941   */\n      tag_74\n      jump\t// in\n    tag_153:\n        /* \"#utility.yul\":4964:4971   */\n      dup1\n        /* \"#utility.yul\":4995:4996   */\n      0x00\n        /* \"#utility.yul\":4980:5418   */\n    tag_154:\n        /* \"#utility.yul\":5005:5011   */\n      dup6\n        /* \"#utility.yul\":5002:5003   */\n      dup2\n        /* \"#utility.yul\":4999:5012   */\n      lt\n        /* \"#utility.yul\":4980:5418   */\n      iszero\n      tag_156\n      jumpi\n        /* \"#utility.yul\":5076:5085   */\n      dup5\n        /* \"#utility.yul\":5070:5074   */\n      dup5\n        /* \"#utility.yul\":5066:5086   */\n      sub\n        /* \"#utility.yul\":5061:5064   */\n      dup10\n        /* \"#utility.yul\":5054:5087   */\n      mstore\n        /* \"#utility.yul\":5127:5133   */\n      dup2\n        /* \"#utility.yul\":5121:5134   */\n      mload\n        /* \"#utility.yul\":5155:5267   */\n      tag_157\n        /* \"#utility.yul\":5262:5266   */\n      dup6\n        /* \"#utility.yul\":5247:5260   */\n      dup3\n        /* \"#utility.yul\":5155:5267   */\n      tag_83\n      jump\t// in\n    tag_157:\n        /* \"#utility.yul\":5147:5267   */\n      swap5\n      pop\n        /* \"#utility.yul\":5290:5374   */\n      tag_158\n        /* \"#utility.yul\":5367:5373   */\n      dup4\n        /* \"#utility.yul\":5290:5374   */\n      tag_84\n      jump\t// in\n    tag_158:\n        /* \"#utility.yul\":5280:5374   */\n      swap3\n      pop\n        /* \"#utility.yul\":5403:5407   */\n      0x20\n        /* \"#utility.yul\":5398:5401   */\n      dup11\n        /* \"#utility.yul\":5394:5408   */\n      add\n        /* \"#utility.yul\":5387:5408   */\n      swap10\n      pop\n        /* \"#utility.yul\":5040:5418   */\n      pop\n        /* \"#utility.yul\":5027:5028   */\n      0x01\n        /* \"#utility.yul\":5024:5025   */\n      dup2\n        /* \"#utility.yul\":5020:5029   */\n      add\n        /* \"#utility.yul\":5015:5029   */\n      swap1\n      pop\n        /* \"#utility.yul\":4980:5418   */\n      jump(tag_154)\n    tag_156:\n        /* \"#utility.yul\":4984:4998   */\n      pop\n        /* \"#utility.yul\":5434:5438   */\n      dup3\n        /* \"#utility.yul\":5427:5438   */\n      swap8\n      pop\n        /* \"#utility.yul\":5454:5457   */\n      dup8\n        /* \"#utility.yul\":5447:5457   */\n      swap6\n      pop\n        /* \"#utility.yul\":4532:5463   */\n      pop\n      pop\n      pop\n      pop\n      pop\n        /* \"#utility.yul\":4360:5463   */\n      swap3\n      swap2\n      pop\n      pop\n      jump\t// out\n        /* \"#utility.yul\":5469:5938   */\n    tag_16:\n        /* \"#utility.yul\":5660:5664   */\n      0x00\n        /* \"#utility.yul\":5698:5700   */\n      0x20\n        /* \"#utility.yul\":5687:5696   */\n      dup3\n        /* \"#utility.yul\":5683:5701   */\n      add\n        /* \"#utility.yul\":5675:5701   */\n      swap1\n      pop\n        /* \"#utility.yul\":5747:5756   */\n      dup2\n        /* \"#utility.yul\":5741:5745   */\n      dup2\n        /* \"#utility.yul\":5737:5757   */\n      sub\n        /* \"#utility.yul\":5733:5734   */\n      0x00\n        /* \"#utility.yul\":5722:5731   */\n      dup4\n        /* \"#utility.yul\":5718:5735   */\n      add\n        /* \"#utility.yul\":5711:5758   */\n      mstore\n        /* \"#utility.yul\":5775:5931   */\n      tag_160\n        /* \"#utility.yul\":5926:5930   */\n      dup2\n        /* \"#utility.yul\":5917:5923   */\n      dup5\n        /* \"#utility.yul\":5775:5931   */\n      tag_85\n      jump\t// in\n    tag_160:\n        /* \"#utility.yul\":5767:5931   */\n      swap1\n      pop\n        /* \"#utility.yul\":5469:5938   */\n      swap3\n      swap2\n      pop\n      pop\n      jump\t// out\n        /* \"#utility.yul\":5944:6066   */\n    tag_86:\n        /* \"#utility.yul\":6017:6041   */\n      tag_162\n        /* \"#utility.yul\":6035:6040   */\n      dup2\n        /* \"#utility.yul\":6017:6041   */\n      tag_80\n      jump\t// in\n    tag_162:\n        /* \"#utility.yul\":6010:6015   */\n      dup2\n        /* \"#utility.yul\":6007:6042   */\n      eq\n        /* \"#utility.yul\":5997:6060   */\n      tag_163\n      jumpi\n        /* \"#utility.yul\":6056:6057   */\n      0x00\n        /* \"#utility.yul\":6053:6054   */\n      dup1\n        /* \"#utility.yul\":6046:6058   */\n      revert\n        /* \"#utility.yul\":5997:6060   */\n    tag_163:\n        /* \"#utility.yul\":5944:6066   */\n      pop\n      jump\t// out\n        /* \"#utility.yul\":6072:6211   */\n    tag_87:\n        /* \"#utility.yul\":6118:6123   */\n      0x00\n        /* \"#utility.yul\":6156:6162   */\n      dup2\n        /* \"#utility.yul\":6143:6163   */\n      calldataload\n        /* \"#utility.yul\":6134:6163   */\n      swap1\n      pop\n        /* \"#utility.yul\":6172:6205   */\n      tag_165\n        /* \"#utility.yul\":6199:6204   */\n      dup2\n        /* \"#utility.yul\":6172:6205   */\n      tag_86\n      jump\t// in\n    tag_165:\n        /* \"#utility.yul\":6072:6211   */\n      swap3\n      swap2\n      pop\n      pop\n      jump\t// out\n        /* \"#utility.yul\":6217:6546   */\n    tag_19:\n        /* \"#utility.yul\":6276:6282   */\n      0x00\n        /* \"#utility.yul\":6325:6327   */\n      0x20\n        /* \"#utility.yul\":6313:6322   */\n      dup3\n        /* \"#utility.yul\":6304:6311   */\n      dup5\n        /* \"#utility.yul\":6300:6323   */\n      sub\n        /* \"#utility.yul\":6296:6328   */\n      slt\n        /* \"#utility.yul\":6293:6412   */\n      iszero\n      tag_167\n      jumpi\n        /* \"#utility.yul\":6331:6410   */\n      tag_168\n      tag_64\n      jump\t// in\n    tag_168:\n        /* \"#utility.yul\":6293:6412   */\n    tag_167:\n        /* \"#utility.yul\":6451:6452   */\n      0x00\n        /* \"#utility.yul\":6476:6529   */\n      tag_169\n        /* \"#utility.yul\":6521:6528   */\n      dup5\n        /* \"#utility.yul\":6512:6518   */\n      dup3\n        /* \"#utility.yul\":6501:6510   */\n      dup6\n        /* \"#utility.yul\":6497:6519   */\n      add\n        /* \"#utility.yul\":6476:6529   */\n      tag_87\n      jump\t// in\n    tag_169:\n        /* \"#utility.yul\":6466:6529   */\n      swap2\n      pop\n        /* \"#utility.yul\":6422:6539   */\n      pop\n        /* \"#utility.yul\":6217:6546   */\n      swap3\n      swap2\n      pop\n      pop\n      jump\t// out\n        /* \"#utility.yul\":6552:6721   */\n    tag_88:\n        /* \"#utility.yul\":6636:6647   */\n      0x00\n        /* \"#utility.yul\":6670:6676   */\n      dup3\n        /* \"#utility.yul\":6665:6668   */\n      dup3\n        /* \"#utility.yul\":6658:6677   */\n      mstore\n        /* \"#utility.yul\":6710:6714   */\n      0x20\n        /* \"#utility.yul\":6705:6708   */\n      dup3\n        /* \"#utility.yul\":6701:6715   */\n      add\n        /* \"#utility.yul\":6686:6715   */\n      swap1\n      pop\n        /* \"#utility.yul\":6552:6721   */\n      swap3\n      swap2\n      pop\n      pop\n      jump\t// out\n        /* \"#utility.yul\":6727:7104   */\n    tag_89:\n        /* \"#utility.yul\":6815:6818   */\n      0x00\n        /* \"#utility.yul\":6843:6882   */\n      tag_172\n        /* \"#utility.yul\":6876:6881   */\n      dup3\n        /* \"#utility.yul\":6843:6882   */\n      tag_75\n      jump\t// in\n    tag_172:\n        /* \"#utility.yul\":6898:6969   */\n      tag_173\n        /* \"#utility.yul\":6962:6968   */\n      dup2\n        /* \"#utility.yul\":6957:6960   */\n      dup6\n        /* \"#utility.yul\":6898:6969   */\n      tag_88\n      jump\t// in\n    tag_173:\n        /* \"#utility.yul\":6891:6969   */\n      swap4\n      pop\n        /* \"#utility.yul\":6978:7043   */\n      tag_174\n        /* \"#utility.yul\":7036:7042   */\n      dup2\n        /* \"#utility.yul\":7031:7034   */\n      dup6\n        /* \"#utility.yul\":7024:7028   */\n      0x20\n        /* \"#utility.yul\":7017:7022   */\n      dup7\n        /* \"#utility.yul\":7013:7029   */\n      add\n        /* \"#utility.yul\":6978:7043   */\n      tag_77\n      jump\t// in\n    tag_174:\n        /* \"#utility.yul\":7068:7097   */\n      tag_175\n        /* \"#utility.yul\":7090:7096   */\n      dup2\n        /* \"#utility.yul\":7068:7097   */\n      tag_78\n      jump\t// in\n    tag_175:\n        /* \"#utility.yul\":7063:7066   */\n      dup5\n        /* \"#utility.yul\":7059:7098   */\n      add\n        /* \"#utility.yul\":7052:7098   */\n      swap2\n      pop\n        /* \"#utility.yul\":6819:7104   */\n      pop\n        /* \"#utility.yul\":6727:7104   */\n      swap3\n      swap2\n      pop\n      pop\n      jump\t// out\n        /* \"#utility.yul\":7110:7228   */\n    tag_90:\n        /* \"#utility.yul\":7197:7221   */\n      tag_177\n        /* \"#utility.yul\":7215:7220   */\n      dup2\n        /* \"#utility.yul\":7197:7221   */\n      tag_80\n      jump\t// in\n    tag_177:\n        /* \"#utility.yul\":7192:7195   */\n      dup3\n        /* \"#utility.yul\":7185:7222   */\n      mstore\n        /* \"#utility.yul\":7110:7228   */\n      pop\n      pop\n      jump\t// out\n        /* \"#utility.yul\":7234:7657   */\n    tag_22:\n        /* \"#utility.yul\":7375:7379   */\n      0x00\n        /* \"#utility.yul\":7413:7415   */\n      0x40\n        /* \"#utility.yul\":7402:7411   */\n      dup3\n        /* \"#utility.yul\":7398:7416   */\n      add\n        /* \"#utility.yul\":7390:7416   */\n      swap1\n      pop\n        /* \"#utility.yul\":7462:7471   */\n      dup2\n        /* \"#utility.yul\":7456:7460   */\n      dup2\n        /* \"#utility.yul\":7452:7472   */\n      sub\n        /* \"#utility.yul\":7448:7449   */\n      0x00\n        /* \"#utility.yul\":7437:7446   */\n      dup4\n        /* \"#utility.yul\":7433:7450   */\n      add\n        /* \"#utility.yul\":7426:7473   */\n      mstore\n        /* \"#utility.yul\":7490:7568   */\n      tag_179\n        /* \"#utility.yul\":7563:7567   */\n      dup2\n        /* \"#utility.yul\":7554:7560   */\n      dup6\n        /* \"#utility.yul\":7490:7568   */\n      tag_89\n      jump\t// in\n    tag_179:\n        /* \"#utility.yul\":7482:7568   */\n      swap1\n      pop\n        /* \"#utility.yul\":7578:7650   */\n      tag_180\n        /* \"#utility.yul\":7646:7648   */\n      0x20\n        /* \"#utility.yul\":7635:7644   */\n      dup4\n        /* \"#utility.yul\":7631:7649   */\n      add\n        /* \"#utility.yul\":7622:7628   */\n      dup5\n        /* \"#utility.yul\":7578:7650   */\n      tag_90\n      jump\t// in\n    tag_180:\n        /* \"#utility.yul\":7234:7657   */\n      swap4\n      swap3\n      pop\n      pop\n      pop\n      jump\t// out\n        /* \"#utility.yul\":7663:7780   */\n    tag_91:\n        /* \"#utility.yul\":7772:7773   */\n      0x00\n        /* \"#utility.yul\":7769:7770   */\n      dup1\n        /* \"#utility.yul\":7762:7774   */\n      revert\n        /* \"#utility.yul\":7786:7903   */\n    tag_92:\n        /* \"#utility.yul\":7895:7896   */\n      0x00\n        /* \"#utility.yul\":7892:7893   */\n      dup1\n        /* \"#utility.yul\":7885:7897   */\n      revert\n        /* \"#utility.yul\":7909:8089   */\n    tag_93:\n        /* \"#utility.yul\":7957:8034   */\n      0x4e487b7100000000000000000000000000000000000000000000000000000000\n        /* \"#utility.yul\":7954:7955   */\n      0x00\n        /* \"#utility.yul\":7947:8035   */\n      mstore\n        /* \"#utility.yul\":8054:8058   */\n      0x41\n        /* \"#utility.yul\":8051:8052   */\n      0x04\n        /* \"#utility.yul\":8044:8059   */\n      mstore\n        /* \"#utility.yul\":8078:8082   */\n      0x24\n        /* \"#utility.yul\":8075:8076   */\n      0x00\n        /* \"#utility.yul\":8068:8083   */\n      revert\n        /* \"#utility.yul\":8095:8376   */\n    tag_94:\n        /* \"#utility.yul\":8178:8205   */\n      tag_185\n        /* \"#utility.yul\":8200:8204   */\n      dup3\n        /* \"#utility.yul\":8178:8205   */\n      tag_78\n      jump\t// in\n    tag_185:\n        /* \"#utility.yul\":8170:8176   */\n      dup2\n        /* \"#utility.yul\":8166:8206   */\n      add\n        /* \"#utility.yul\":8308:8314   */\n      dup2\n        /* \"#utility.yul\":8296:8306   */\n      dup2\n        /* \"#utility.yul\":8293:8315   */\n      lt\n        /* \"#utility.yul\":8272:8290   */\n      0xffffffffffffffff\n        /* \"#utility.yul\":8260:8270   */\n      dup3\n        /* \"#utility.yul\":8257:8291   */\n      gt\n        /* \"#utility.yul\":8254:8316   */\n      or\n        /* \"#utility.yul\":8251:8339   */\n      iszero\n      tag_186\n      jumpi\n        /* \"#utility.yul\":8319:8337   */\n      tag_187\n      tag_93\n      jump\t// in\n    tag_187:\n        /* \"#utility.yul\":8251:8339   */\n    tag_186:\n        /* \"#utility.yul\":8359:8369   */\n      dup1\n        /* \"#utility.yul\":8355:8357   */\n      0x40\n        /* \"#utility.yul\":8348:8370   */\n      mstore\n        /* \"#utility.yul\":8138:8376   */\n      pop\n        /* \"#utility.yul\":8095:8376   */\n      pop\n      pop\n      jump\t// out\n        /* \"#utility.yul\":8382:8511   */\n    tag_95:\n        /* \"#utility.yul\":8416:8422   */\n      0x00\n        /* \"#utility.yul\":8443:8463   */\n      tag_189\n      tag_63\n      jump\t// in\n    tag_189:\n        /* \"#utility.yul\":8433:8463   */\n      swap1\n      pop\n        /* \"#utility.yul\":8472:8505   */\n      tag_190\n        /* \"#utility.yul\":8500:8504   */\n      dup3\n        /* \"#utility.yul\":8492:8498   */\n      dup3\n        /* \"#utility.yul\":8472:8505   */\n      tag_94\n      jump\t// in\n    tag_190:\n        /* \"#utility.yul\":8382:8511   */\n      swap2\n      swap1\n      pop\n      jump\t// out\n        /* \"#utility.yul\":8517:8825   */\n    tag_96:\n        /* \"#utility.yul\":8579:8583   */\n      0x00\n        /* \"#utility.yul\":8669:8687   */\n      0xffffffffffffffff\n        /* \"#utility.yul\":8661:8667   */\n      dup3\n        /* \"#utility.yul\":8658:8688   */\n      gt\n        /* \"#utility.yul\":8655:8711   */\n      iszero\n      tag_192\n      jumpi\n        /* \"#utility.yul\":8691:8709   */\n      tag_193\n      tag_93\n      jump\t// in\n    tag_193:\n        /* \"#utility.yul\":8655:8711   */\n    tag_192:\n        /* \"#utility.yul\":8729:8758   */\n      tag_194\n        /* \"#utility.yul\":8751:8757   */\n      dup3\n        /* \"#utility.yul\":8729:8758   */\n      tag_78\n      jump\t// in\n    tag_194:\n        /* \"#utility.yul\":8721:8758   */\n      swap1\n      pop\n        /* \"#utility.yul\":8813:8817   */\n      0x20\n        /* \"#utility.yul\":8807:8811   */\n      dup2\n        /* \"#utility.yul\":8803:8818   */\n      add\n        /* \"#utility.yul\":8795:8818   */\n      swap1\n      pop\n        /* \"#utility.yul\":8517:8825   */\n      swap2\n      swap1\n      pop\n      jump\t// out\n        /* \"#utility.yul\":8831:8979   */\n    tag_97:\n        /* \"#utility.yul\":8929:8935   */\n      dup3\n        /* \"#utility.yul\":8924:8927   */\n      dup2\n        /* \"#utility.yul\":8919:8922   */\n      dup4\n        /* \"#utility.yul\":8906:8936   */\n      calldatacopy\n        /* \"#utility.yul\":8970:8971   */\n      0x00\n        /* \"#utility.yul\":8961:8967   */\n      dup4\n        /* \"#utility.yul\":8956:8959   */\n      dup4\n        /* \"#utility.yul\":8952:8968   */\n      add\n        /* \"#utility.yul\":8945:8972   */\n      mstore\n        /* \"#utility.yul\":8831:8979   */\n      pop\n      pop\n      pop\n      jump\t// out\n        /* \"#utility.yul\":8985:9410   */\n    tag_98:\n        /* \"#utility.yul\":9063:9068   */\n      0x00\n        /* \"#utility.yul\":9088:9154   */\n      tag_197\n        /* \"#utility.yul\":9104:9153   */\n      tag_198\n        /* \"#utility.yul\":9146:9152   */\n      dup5\n        /* \"#utility.yul\":9104:9153   */\n      tag_96\n      jump\t// in\n    tag_198:\n        /* \"#utility.yul\":9088:9154   */\n      tag_95\n      jump\t// in\n    tag_197:\n        /* \"#utility.yul\":9079:9154   */\n      swap1\n      pop\n        /* \"#utility.yul\":9177:9183   */\n      dup3\n        /* \"#utility.yul\":9170:9175   */\n      dup2\n        /* \"#utility.yul\":9163:9184   */\n      mstore\n        /* \"#utility.yul\":9215:9219   */\n      0x20\n        /* \"#utility.yul\":9208:9213   */\n      dup2\n        /* \"#utility.yul\":9204:9220   */\n      add\n        /* \"#utility.yul\":9253:9256   */\n      dup5\n        /* \"#utility.yul\":9244:9250   */\n      dup5\n        /* \"#utility.yul\":9239:9242   */\n      dup5\n        /* \"#utility.yul\":9235:9251   */\n      add\n        /* \"#utility.yul\":9232:9257   */\n      gt\n        /* \"#utility.yul\":9229:9341   */\n      iszero\n      tag_199\n      jumpi\n        /* \"#utility.yul\":9260:9339   */\n      tag_200\n      tag_92\n      jump\t// in\n    tag_200:\n        /* \"#utility.yul\":9229:9341   */\n    tag_199:\n        /* \"#utility.yul\":9350:9404   */\n      tag_201\n        /* \"#utility.yul\":9397:9403   */\n      dup5\n        /* \"#utility.yul\":9392:9395   */\n      dup3\n        /* \"#utility.yul\":9387:9390   */\n      dup6\n        /* \"#utility.yul\":9350:9404   */\n      tag_97\n      jump\t// in\n    tag_201:\n        /* \"#utility.yul\":9069:9410   */\n      pop\n        /* \"#utility.yul\":8985:9410   */\n      swap4\n      swap3\n      pop\n      pop\n      pop\n      jump\t// out\n        /* \"#utility.yul\":9430:9770   */\n    tag_99:\n        /* \"#utility.yul\":9486:9491   */\n      0x00\n        /* \"#utility.yul\":9535:9538   */\n      dup3\n        /* \"#utility.yul\":9528:9532   */\n      0x1f\n        /* \"#utility.yul\":9520:9526   */\n      dup4\n        /* \"#utility.yul\":9516:9533   */\n      add\n        /* \"#utility.yul\":9512:9539   */\n      slt\n        /* \"#utility.yul\":9502:9624   */\n      tag_203\n      jumpi\n        /* \"#utility.yul\":9543:9622   */\n      tag_204\n      tag_91\n      jump\t// in\n    tag_204:\n        /* \"#utility.yul\":9502:9624   */\n    tag_203:\n        /* \"#utility.yul\":9660:9666   */\n      dup2\n        /* \"#utility.yul\":9647:9667   */\n      calldataload\n        /* \"#utility.yul\":9685:9764   */\n      tag_205\n        /* \"#utility.yul\":9760:9763   */\n      dup5\n        /* \"#utility.yul\":9752:9758   */\n      dup3\n        /* \"#utility.yul\":9745:9749   */\n      0x20\n        /* \"#utility.yul\":9737:9743   */\n      dup7\n        /* \"#utility.yul\":9733:9750   */\n      add\n        /* \"#utility.yul\":9685:9764   */\n      tag_98\n      jump\t// in\n    tag_205:\n        /* \"#utility.yul\":9676:9764   */\n      swap2\n      pop\n        /* \"#utility.yul\":9492:9770   */\n      pop\n        /* \"#utility.yul\":9430:9770   */\n      swap3\n      swap2\n      pop\n      pop\n      jump\t// out\n        /* \"#utility.yul\":9776:10285   */\n    tag_25:\n        /* \"#utility.yul\":9845:9851   */\n      0x00\n        /* \"#utility.yul\":9894:9896   */\n      0x20\n        /* \"#utility.yul\":9882:9891   */\n      dup3\n        /* \"#utility.yul\":9873:9880   */\n      dup5\n        /* \"#utility.yul\":9869:9892   */\n      sub\n        /* \"#utility.yul\":9865:9897   */\n      slt\n        /* \"#utility.yul\":9862:9981   */\n      iszero\n      tag_207\n      jumpi\n        /* \"#utility.yul\":9900:9979   */\n      tag_208\n      tag_64\n      jump\t// in\n    tag_208:\n        /* \"#utility.yul\":9862:9981   */\n    tag_207:\n        /* \"#utility.yul\":10048:10049   */\n      0x00\n        /* \"#utility.yul\":10037:10046   */\n      dup3\n        /* \"#utility.yul\":10033:10050   */\n      add\n        /* \"#utility.yul\":10020:10051   */\n      calldataload\n        /* \"#utility.yul\":10078:10096   */\n      0xffffffffffffffff\n        /* \"#utility.yul\":10070:10076   */\n      dup2\n        /* \"#utility.yul\":10067:10097   */\n      gt\n        /* \"#utility.yul\":10064:10181   */\n      iszero\n      tag_209\n      jumpi\n        /* \"#utility.yul\":10100:10179   */\n      tag_210\n      tag_65\n      jump\t// in\n    tag_210:\n        /* \"#utility.yul\":10064:10181   */\n    tag_209:\n        /* \"#utility.yul\":10205:10268   */\n      tag_211\n        /* \"#utility.yul\":10260:10267   */\n      dup5\n        /* \"#utility.yul\":10251:10257   */\n      dup3\n        /* \"#utility.yul\":10240:10249   */\n      dup6\n        /* \"#utility.yul\":10236:10258   */\n      add\n        /* \"#utility.yul\":10205:10268   */\n      tag_99\n      jump\t// in\n    tag_211:\n        /* \"#utility.yul\":10195:10268   */\n      swap2\n      pop\n        /* \"#utility.yul\":9991:10278   */\n      pop\n        /* \"#utility.yul\":9776:10285   */\n      swap3\n      swap2\n      pop\n      pop\n      jump\t// out\n        /* \"#utility.yul\":10291:10604   */\n    tag_28:\n        /* \"#utility.yul\":10404:10408   */\n      0x00\n        /* \"#utility.yul\":10442:10444   */\n      0x20\n        /* \"#utility.yul\":10431:10440   */\n      dup3\n        /* \"#utility.yul\":10427:10445   */\n      add\n        /* \"#utility.yul\":10419:10445   */\n      swap1\n      pop\n        /* \"#utility.yul\":10491:10500   */\n      dup2\n        /* \"#utility.yul\":10485:10489   */\n      dup2\n        /* \"#utility.yul\":10481:10501   */\n      sub\n        /* \"#utility.yul\":10477:10478   */\n      0x00\n        /* \"#utility.yul\":10466:10475   */\n      dup4\n        /* \"#utility.yul\":10462:10479   */\n      add\n        /* \"#utility.yul\":10455:10502   */\n      mstore\n        /* \"#utility.yul\":10519:10597   */\n      tag_213\n        /* \"#utility.yul\":10592:10596   */\n      dup2\n        /* \"#utility.yul\":10583:10589   */\n      dup5\n        /* \"#utility.yul\":10519:10597   */\n      tag_89\n      jump\t// in\n    tag_213:\n        /* \"#utility.yul\":10511:10597   */\n      swap1\n      pop\n        /* \"#utility.yul\":10291:10604   */\n      swap3\n      swap2\n      pop\n      pop\n      jump\t// out\n        /* \"#utility.yul\":10610:10790   */\n    tag_100:\n        /* \"#utility.yul\":10658:10735   */\n      0x4e487b7100000000000000000000000000000000000000000000000000000000\n        /* \"#utility.yul\":10655:10656   */\n      0x00\n        /* \"#utility.yul\":10648:10736   */\n      mstore\n        /* \"#utility.yul\":10755:10759   */\n      0x22\n        /* \"#utility.yul\":10752:10753   */\n      0x04\n        /* \"#utility.yul\":10745:10760   */\n      mstore\n        /* \"#utility.yul\":10779:10783   */\n      0x24\n        /* \"#utility.yul\":10776:10777   */\n      0x00\n        /* \"#utility.yul\":10769:10784   */\n      revert\n        /* \"#utility.yul\":10796:11116   */\n    tag_34:\n        /* \"#utility.yul\":10840:10846   */\n      0x00\n        /* \"#utility.yul\":10877:10878   */\n      0x02\n        /* \"#utility.yul\":10871:10875   */\n      dup3\n        /* \"#utility.yul\":10867:10879   */\n      div\n        /* \"#utility.yul\":10857:10879   */\n      swap1\n      pop\n        /* \"#utility.yul\":10924:10925   */\n      0x01\n        /* \"#utility.yul\":10918:10922   */\n      dup3\n        /* \"#utility.yul\":10914:10926   */\n      and\n        /* \"#utility.yul\":10945:10963   */\n      dup1\n        /* \"#utility.yul\":10935:11016   */\n      tag_216\n      jumpi\n        /* \"#utility.yul\":11001:11005   */\n      0x7f\n        /* \"#utility.yul\":10993:10999   */\n      dup3\n        /* \"#utility.yul\":10989:11006   */\n      and\n        /* \"#utility.yul\":10979:11006   */\n      swap2\n      pop\n        /* \"#utility.yul\":10935:11016   */\n    tag_216:\n        /* \"#utility.yul\":11063:11065   */\n      0x20\n        /* \"#utility.yul\":11055:11061   */\n      dup3\n        /* \"#utility.yul\":11052:11066   */\n      lt\n        /* \"#utility.yul\":11032:11050   */\n      dup2\n        /* \"#utility.yul\":11029:11067   */\n      sub\n        /* \"#utility.yul\":11026:11110   */\n      tag_217\n      jumpi\n        /* \"#utility.yul\":11082:11100   */\n      tag_218\n      tag_100\n      jump\t// in\n    tag_218:\n        /* \"#utility.yul\":11026:11110   */\n    tag_217:\n        /* \"#utility.yul\":10847:11116   */\n      pop\n        /* \"#utility.yul\":10796:11116   */\n      swap2\n      swap1\n      pop\n      jump\t// out\n        /* \"#utility.yul\":11122:11294   */\n    tag_101:\n        /* \"#utility.yul\":11262:11286   */\n      0x596f75206861766520616c726561647920766f74656400000000000000000000\n        /* \"#utility.yul\":11258:11259   */\n      0x00\n        /* \"#utility.yul\":11250:11256   */\n      dup3\n        /* \"#utility.yul\":11246:11260   */\n      add\n        /* \"#utility.yul\":11239:11287   */\n      mstore\n        /* \"#utility.yul\":11122:11294   */\n      pop\n      jump\t// out\n        /* \"#utility.yul\":11300:11666   */\n    tag_102:\n        /* \"#utility.yul\":11442:11445   */\n      0x00\n        /* \"#utility.yul\":11463:11530   */\n      tag_221\n        /* \"#utility.yul\":11527:11529   */\n      0x16\n        /* \"#utility.yul\":11522:11525   */\n      dup4\n        /* \"#utility.yul\":11463:11530   */\n      tag_88\n      jump\t// in\n    tag_221:\n        /* \"#utility.yul\":11456:11530   */\n      swap2\n      pop\n        /* \"#utility.yul\":11539:11632   */\n      tag_222\n        /* \"#utility.yul\":11628:11631   */\n      dup3\n        /* \"#utility.yul\":11539:11632   */\n      tag_101\n      jump\t// in\n    tag_222:\n        /* \"#utility.yul\":11657:11659   */\n      0x20\n        /* \"#utility.yul\":11652:11655   */\n      dup3\n        /* \"#utility.yul\":11648:11660   */\n      add\n        /* \"#utility.yul\":11641:11660   */\n      swap1\n      pop\n        /* \"#utility.yul\":11300:11666   */\n      swap2\n      swap1\n      pop\n      jump\t// out\n        /* \"#utility.yul\":11672:12091   */\n    tag_49:\n        /* \"#utility.yul\":11838:11842   */\n      0x00\n        /* \"#utility.yul\":11876:11878   */\n      0x20\n        /* \"#utility.yul\":11865:11874   */\n      dup3\n        /* \"#utility.yul\":11861:11879   */\n      add\n        /* \"#utility.yul\":11853:11879   */\n      swap1\n      pop\n        /* \"#utility.yul\":11925:11934   */\n      dup2\n        /* \"#utility.yul\":11919:11923   */\n      dup2\n        /* \"#utility.yul\":11915:11935   */\n      sub\n        /* \"#utility.yul\":11911:11912   */\n      0x00\n        /* \"#utility.yul\":11900:11909   */\n      dup4\n        /* \"#utility.yul\":11896:11913   */\n      add\n        /* \"#utility.yul\":11889:11936   */\n      mstore\n        /* \"#utility.yul\":11953:12084   */\n      tag_224\n        /* \"#utility.yul\":12079:12083   */\n      dup2\n        /* \"#utility.yul\":11953:12084   */\n      tag_102\n      jump\t// in\n    tag_224:\n        /* \"#utility.yul\":11945:12084   */\n      swap1\n      pop\n        /* \"#utility.yul\":11672:12091   */\n      swap2\n      swap1\n      pop\n      jump\t// out\n        /* \"#utility.yul\":12097:12245   */\n    tag_103:\n        /* \"#utility.yul\":12199:12210   */\n      0x00\n        /* \"#utility.yul\":12236:12239   */\n      dup2\n        /* \"#utility.yul\":12221:12239   */\n      swap1\n      pop\n        /* \"#utility.yul\":12097:12245   */\n      swap3\n      swap2\n      pop\n      pop\n      jump\t// out\n        /* \"#utility.yul\":12251:12641   */\n    tag_104:\n        /* \"#utility.yul\":12357:12360   */\n      0x00\n        /* \"#utility.yul\":12385:12424   */\n      tag_227\n        /* \"#utility.yul\":12418:12423   */\n      dup3\n        /* \"#utility.yul\":12385:12424   */\n      tag_75\n      jump\t// in\n    tag_227:\n        /* \"#utility.yul\":12440:12529   */\n      tag_228\n        /* \"#utility.yul\":12522:12528   */\n      dup2\n        /* \"#utility.yul\":12517:12520   */\n      dup6\n        /* \"#utility.yul\":12440:12529   */\n      tag_103\n      jump\t// in\n    tag_228:\n        /* \"#utility.yul\":12433:12529   */\n      swap4\n      pop\n        /* \"#utility.yul\":12538:12603   */\n      tag_229\n        /* \"#utility.yul\":12596:12602   */\n      dup2\n        /* \"#utility.yul\":12591:12594   */\n      dup6\n        /* \"#utility.yul\":12584:12588   */\n      0x20\n        /* \"#utility.yul\":12577:12582   */\n      dup7\n        /* \"#utility.yul\":12573:12589   */\n      add\n        /* \"#utility.yul\":12538:12603   */\n      tag_77\n      jump\t// in\n    tag_229:\n        /* \"#utility.yul\":12628:12634   */\n      dup1\n        /* \"#utility.yul\":12623:12626   */\n      dup5\n        /* \"#utility.yul\":12619:12635   */\n      add\n        /* \"#utility.yul\":12612:12635   */\n      swap2\n      pop\n        /* \"#utility.yul\":12361:12641   */\n      pop\n        /* \"#utility.yul\":12251:12641   */\n      swap3\n      swap2\n      pop\n      pop\n      jump\t// out\n        /* \"#utility.yul\":12647:12922   */\n    tag_51:\n        /* \"#utility.yul\":12779:12782   */\n      0x00\n        /* \"#utility.yul\":12801:12896   */\n      tag_231\n        /* \"#utility.yul\":12892:12895   */\n      dup3\n        /* \"#utility.yul\":12883:12889   */\n      dup5\n        /* \"#utility.yul\":12801:12896   */\n      tag_104\n      jump\t// in\n    tag_231:\n        /* \"#utility.yul\":12794:12896   */\n      swap2\n      pop\n        /* \"#utility.yul\":12913:12916   */\n      dup2\n        /* \"#utility.yul\":12906:12916   */\n      swap1\n      pop\n        /* \"#utility.yul\":12647:12922   */\n      swap3\n      swap2\n      pop\n      pop\n      jump\t// out\n        /* \"#utility.yul\":12928:13100   */\n    tag_105:\n        /* \"#utility.yul\":13068:13092   */\n      0x496e76616c69642063616e646964617465206e616d6500000000000000000000\n        /* \"#utility.yul\":13064:13065   */\n      0x00\n        /* \"#utility.yul\":13056:13062   */\n      dup3\n        /* \"#utility.yul\":13052:13066   */\n      add\n        /* \"#utility.yul\":13045:13093   */\n      mstore\n        /* \"#utility.yul\":12928:13100   */\n      pop\n      jump\t// out\n        /* \"#utility.yul\":13106:13472   */\n    tag_106:\n        /* \"#utility.yul\":13248:13251   */\n      0x00\n        /* \"#utility.yul\":13269:13336   */\n      tag_234\n        /* \"#utility.yul\":13333:13335   */\n      0x16\n        /* \"#utility.yul\":13328:13331   */\n      dup4\n        /* \"#utility.yul\":13269:13336   */\n      tag_88\n      jump\t// in\n    tag_234:\n        /* \"#utility.yul\":13262:13336   */\n      swap2\n      pop\n        /* \"#utility.yul\":13345:13438   */\n      tag_235\n        /* \"#utility.yul\":13434:13437   */\n      dup3\n        /* \"#utility.yul\":13345:13438   */\n      tag_105\n      jump\t// in\n    tag_235:\n        /* \"#utility.yul\":13463:13465   */\n      0x20\n        /* \"#utility.yul\":13458:13461   */\n      dup3\n        /* \"#utility.yul\":13454:13466   */\n      add\n        /* \"#utility.yul\":13447:13466   */\n      swap1\n      pop\n        /* \"#utility.yul\":13106:13472   */\n      swap2\n      swap1\n      pop\n      jump\t// out\n        /* \"#utility.yul\":13478:13897   */\n    tag_54:\n        /* \"#utility.yul\":13644:13648   */\n      0x00\n        /* \"#utility.yul\":13682:13684   */\n      0x20\n        /* \"#utility.yul\":13671:13680   */\n      dup3\n        /* \"#utility.yul\":13667:13685   */\n      add\n        /* \"#utility.yul\":13659:13685   */\n      swap1\n      pop\n        /* \"#utility.yul\":13731:13740   */\n      dup2\n        /* \"#utility.yul\":13725:13729   */\n      dup2\n        /* \"#utility.yul\":13721:13741   */\n      sub\n        /* \"#utility.yul\":13717:13718   */\n      0x00\n        /* \"#utility.yul\":13706:13715   */\n      dup4\n        /* \"#utility.yul\":13702:13719   */\n      add\n        /* \"#utility.yul\":13695:13742   */\n      mstore\n        /* \"#utility.yul\":13759:13890   */\n      tag_237\n        /* \"#utility.yul\":13885:13889   */\n      dup2\n        /* \"#utility.yul\":13759:13890   */\n      tag_106\n      jump\t// in\n    tag_237:\n        /* \"#utility.yul\":13751:13890   */\n      swap1\n      pop\n        /* \"#utility.yul\":13478:13897   */\n      swap2\n      swap1\n      pop\n      jump\t// out\n        /* \"#utility.yul\":13903:14083   */\n    tag_107:\n        /* \"#utility.yul\":13951:14028   */\n      0x4e487b7100000000000000000000000000000000000000000000000000000000\n        /* \"#utility.yul\":13948:13949   */\n      0x00\n        /* \"#utility.yul\":13941:14029   */\n      mstore\n        /* \"#utility.yul\":14048:14052   */\n      0x11\n        /* \"#utility.yul\":14045:14046   */\n      0x04\n        /* \"#utility.yul\":14038:14053   */\n      mstore\n        /* \"#utility.yul\":14072:14076   */\n      0x24\n        /* \"#utility.yul\":14069:14070   */\n      0x00\n        /* \"#utility.yul\":14062:14077   */\n      revert\n        /* \"#utility.yul\":14089:14283   */\n    tag_56:\n        /* \"#utility.yul\":14129:14133   */\n      0x00\n        /* \"#utility.yul\":14149:14169   */\n      tag_240\n        /* \"#utility.yul\":14167:14168   */\n      dup3\n        /* \"#utility.yul\":14149:14169   */\n      tag_80\n      jump\t// in\n    tag_240:\n        /* \"#utility.yul\":14144:14169   */\n      swap2\n      pop\n        /* \"#utility.yul\":14183:14203   */\n      tag_241\n        /* \"#utility.yul\":14201:14202   */\n      dup4\n        /* \"#utility.yul\":14183:14203   */\n      tag_80\n      jump\t// in\n    tag_241:\n        /* \"#utility.yul\":14178:14203   */\n      swap3\n      pop\n        /* \"#utility.yul\":14227:14228   */\n      dup3\n        /* \"#utility.yul\":14224:14225   */\n      dup3\n        /* \"#utility.yul\":14220:14229   */\n      sub\n        /* \"#utility.yul\":14212:14229   */\n      swap1\n      pop\n        /* \"#utility.yul\":14251:14252   */\n      dup2\n        /* \"#utility.yul\":14245:14249   */\n      dup2\n        /* \"#utility.yul\":14242:14253   */\n      gt\n        /* \"#utility.yul\":14239:14276   */\n      iszero\n      tag_242\n      jumpi\n        /* \"#utility.yul\":14256:14274   */\n      tag_243\n      tag_107\n      jump\t// in\n    tag_243:\n        /* \"#utility.yul\":14239:14276   */\n    tag_242:\n        /* \"#utility.yul\":14089:14283   */\n      swap3\n      swap2\n      pop\n      pop\n      jump\t// out\n        /* \"#utility.yul\":14289:14469   */\n    tag_59:\n        /* \"#utility.yul\":14337:14414   */\n      0x4e487b7100000000000000000000000000000000000000000000000000000000\n        /* \"#utility.yul\":14334:14335   */\n      0x00\n        /* \"#utility.yul\":14327:14415   */\n      mstore\n        /* \"#utility.yul\":14434:14438   */\n      0x32\n        /* \"#utility.yul\":14431:14432   */\n      0x04\n        /* \"#utility.yul\":14424:14439   */\n      mstore\n        /* \"#utility.yul\":14458:14462   */\n      0x24\n        /* \"#utility.yul\":14455:14456   */\n      0x00\n        /* \"#utility.yul\":14448:14463   */\n      revert\n        /* \"#utility.yul\":14475:14708   */\n    tag_62:\n        /* \"#utility.yul\":14514:14517   */\n      0x00\n        /* \"#utility.yul\":14537:14561   */\n      tag_246\n        /* \"#utility.yul\":14555:14560   */\n      dup3\n        /* \"#utility.yul\":14537:14561   */\n      tag_80\n      jump\t// in\n    tag_246:\n        /* \"#utility.yul\":14528:14561   */\n      swap2\n      pop\n        /* \"#utility.yul\":14583:14649   */\n      0xffffffffffffffffffffffffffffffffffffffffffffffffffffffffffffffff\n        /* \"#utility.yul\":14576:14581   */\n      dup3\n        /* \"#utility.yul\":14573:14650   */\n      sub\n        /* \"#utility.yul\":14570:14673   */\n      tag_247\n      jumpi\n        /* \"#utility.yul\":14653:14671   */\n      tag_248\n      tag_107\n      jump\t// in\n    tag_248:\n        /* \"#utility.yul\":14570:14673   */\n    tag_247:\n        /* \"#utility.yul\":14700:14701   */\n      0x01\n        /* \"#utility.yul\":14693:14698   */\n      dup3\n        /* \"#utility.yul\":14689:14702   */\n      add\n        /* \"#utility.yul\":14682:14702   */\n      swap1\n      pop\n        /* \"#utility.yul\":14475:14708   */\n      swap2\n      swap1\n      pop\n      jump\t// out\n    stop\n    data_3165b2f071da36ab6bb70fcda2aea2cbf3f697b9a5959fab1eac9a92bde1afba 596f752068617665207375636365737366756c6c79206361737420796f757220766f7465\n\n    auxdata: 0xa2646970667358221220755c56cbcfa4fa3eebbcb7dc5cfadd19396edc657a715a3d1bad91065bea62fb64736f6c634300081a0033\n}\n",
				"bytecode": {
					"linkReferences": {},
					"object": "608060405234801561000f575f80fd5b506100546040518060400160405280600a81526020017f456d6d616e75656c6c61000000000000000000000000000000000000000000008152506100e160201b60201c565b6100986040518060400160405280600681526020017f4b616d4b616d00000000000000000000000000000000000000000000000000008152506100e160201b60201c565b6100dc6040518060400160405280600981526020017f4761627269656c6c6100000000000000000000000000000000000000000000008152506100e160201b60201c565b6105b7565b5f816040516020016100f3919061022a565b6040516020818303038152906040528051906020012090505f805f8381526020019081526020015f20541461015d576040517f08c379a00000000000000000000000000000000000000000000000000000000081526004016101549061029a565b60405180910390fd5b600160405180604001604052808481526020015f815250908060018154018082558091505060019003905f5260205f2090600202015f909190919091505f820151815f0190816101ad91906104e8565b506020820151816001015550506001805490505f808381526020019081526020015f20819055505050565b5f81519050919050565b5f81905092915050565b8281835e5f83830152505050565b5f610204826101d8565b61020e81856101e2565b935061021e8185602086016101ec565b80840191505092915050565b5f61023582846101fa565b915081905092915050565b5f82825260208201905092915050565b7f43616e64696461746520616c72656164792065786973747300000000000000005f82015250565b5f610284601883610240565b915061028f82610250565b602082019050919050565b5f6020820190508181035f8301526102b181610278565b9050919050565b7f4e487b71000000000000000000000000000000000000000000000000000000005f52604160045260245ffd5b7f4e487b71000000000000000000000000000000000000000000000000000000005f52602260045260245ffd5b5f600282049050600182168061032957607f821691505b60208210810361033c5761033b6102e5565b5b50919050565b5f819050815f5260205f209050919050565b5f6020601f8301049050919050565b5f82821b905092915050565b5f6008830261039e7fffffffffffffffffffffffffffffffffffffffffffffffffffffffffffffffff82610363565b6103a88683610363565b95508019841693508086168417925050509392505050565b5f819050919050565b5f819050919050565b5f6103ec6103e76103e2846103c0565b6103c9565b6103c0565b9050919050565b5f819050919050565b610405836103d2565b610419610411826103f3565b84845461036f565b825550505050565b5f90565b61042d610421565b6104388184846103fc565b505050565b5b8181101561045b576104505f82610425565b60018101905061043e565b5050565b601f8211156104a05761047181610342565b61047a84610354565b81016020851015610489578190505b61049d61049585610354565b83018261043d565b50505b505050565b5f82821c905092915050565b5f6104c05f19846008026104a5565b1980831691505092915050565b5f6104d883836104b1565b9150826002028217905092915050565b6104f1826101d8565b67ffffffffffffffff81111561050a576105096102b8565b5b6105148254610312565b61051f82828561045f565b5f60209050601f831160018114610550575f841561053e578287015190505b61054885826104cd565b8655506105af565b601f19841661055e86610342565b5f5b8281101561058557848901518255600182019150602085019450602081019050610560565b868310156105a2578489015161059e601f8916826104b1565b8355505b6001600288020188555050505b505050505050565b610c08806105c45f395ff3fe608060405234801561000f575f80fd5b506004361061004a575f3560e01c806309eef43e1461004e5780630dc960151461007e5780633477ee2e1461009c578063fc36e15b146100cd575b5f80fd5b610068600480360381019061006391906104f5565b6100fd565b604051610075919061053a565b60405180910390f35b61008661011a565b60405161009391906106d0565b60405180910390f35b6100b660048036038101906100b1919061071a565b61020f565b6040516100c492919061079c565b60405180910390f35b6100e760048036038101906100e291906108f6565b6102c4565b6040516100f4919061093d565b60405180910390f35b6002602052805f5260405f205f915054906101000a900460ff1681565b60606001805480602002602001604051908101604052809291908181526020015f905b82821015610206578382905f5260205f2090600202016040518060400160405290815f8201805461016d9061098a565b80601f01602080910402602001604051908101604052809291908181526020018280546101999061098a565b80156101e45780601f106101bb576101008083540402835291602001916101e4565b820191905f5260205f20905b8154815290600101906020018083116101c757829003601f168201915b505050505081526020016001820154815250508152602001906001019061013d565b50505050905090565b6001818154811061021e575f80fd5b905f5260205f2090600202015f91509050805f01805461023d9061098a565b80601f01602080910402602001604051908101604052809291908181526020018280546102699061098a565b80156102b45780601f1061028b576101008083540402835291602001916102b4565b820191905f5260205f20905b81548152906001019060200180831161029757829003601f168201915b5050505050908060010154905082565b606060025f3373ffffffffffffffffffffffffffffffffffffffff1673ffffffffffffffffffffffffffffffffffffffff1681526020019081526020015f205f9054906101000a900460ff1615610350576040517f08c379a000000000000000000000000000000000000000000000000000000000815260040161034790610a04565b60405180910390fd5b5f826040516020016103629190610a5c565b6040516020818303038152906040528051906020012090505f805f8381526020019081526020015f205490505f81116103d0576040517f08c379a00000000000000000000000000000000000000000000000000000000081526004016103c790610abc565b60405180910390fd5b600180826103de9190610b07565b815481106103ef576103ee610b3a565b5b905f5260205f2090600202016001015f81548092919061040e90610b67565b9190505550600160025f3373ffffffffffffffffffffffffffffffffffffffff1673ffffffffffffffffffffffffffffffffffffffff1681526020019081526020015f205f6101000a81548160ff021916908315150217905550604051806060016040528060248152602001610baf6024913992505050919050565b5f604051905090565b5f80fd5b5f80fd5b5f73ffffffffffffffffffffffffffffffffffffffff82169050919050565b5f6104c48261049b565b9050919050565b6104d4816104ba565b81146104de575f80fd5b50565b5f813590506104ef816104cb565b92915050565b5f6020828403121561050a57610509610493565b5b5f610517848285016104e1565b91505092915050565b5f8115159050919050565b61053481610520565b82525050565b5f60208201905061054d5f83018461052b565b92915050565b5f81519050919050565b5f82825260208201905092915050565b5f819050602082019050919050565b5f81519050919050565b5f82825260208201905092915050565b8281835e5f83830152505050565b5f601f19601f8301169050919050565b5f6105be8261057c565b6105c88185610586565b93506105d8818560208601610596565b6105e1816105a4565b840191505092915050565b5f819050919050565b6105fe816105ec565b82525050565b5f604083015f8301518482035f86015261061e82826105b4565b915050602083015161063360208601826105f5565b508091505092915050565b5f6106498383610604565b905092915050565b5f602082019050919050565b5f61066782610553565b610671818561055d565b9350836020820285016106838561056d565b805f5b858110156106be578484038952815161069f858261063e565b94506106aa83610651565b925060208a01995050600181019050610686565b50829750879550505050505092915050565b5f6020820190508181035f8301526106e8818461065d565b905092915050565b6106f9816105ec565b8114610703575f80fd5b50565b5f81359050610714816106f0565b92915050565b5f6020828403121561072f5761072e610493565b5b5f61073c84828501610706565b91505092915050565b5f82825260208201905092915050565b5f61075f8261057c565b6107698185610745565b9350610779818560208601610596565b610782816105a4565b840191505092915050565b610796816105ec565b82525050565b5f6040820190508181035f8301526107b48185610755565b90506107c3602083018461078d565b9392505050565b5f80fd5b5f80fd5b7f4e487b71000000000000000000000000000000000000000000000000000000005f52604160045260245ffd5b610808826105a4565b810181811067ffffffffffffffff82111715610827576108266107d2565b5b80604052505050565b5f61083961048a565b905061084582826107ff565b919050565b5f67ffffffffffffffff821115610864576108636107d2565b5b61086d826105a4565b9050602081019050919050565b828183375f83830152505050565b5f61089a6108958461084a565b610830565b9050828152602081018484840111156108b6576108b56107ce565b5b6108c184828561087a565b509392505050565b5f82601f8301126108dd576108dc6107ca565b5b81356108ed848260208601610888565b91505092915050565b5f6020828403121561090b5761090a610493565b5b5f82013567ffffffffffffffff81111561092857610927610497565b5b610934848285016108c9565b91505092915050565b5f6020820190508181035f8301526109558184610755565b905092915050565b7f4e487b71000000000000000000000000000000000000000000000000000000005f52602260045260245ffd5b5f60028204905060018216806109a157607f821691505b6020821081036109b4576109b361095d565b5b50919050565b7f596f75206861766520616c726561647920766f746564000000000000000000005f82015250565b5f6109ee601683610745565b91506109f9826109ba565b602082019050919050565b5f6020820190508181035f830152610a1b816109e2565b9050919050565b5f81905092915050565b5f610a368261057c565b610a408185610a22565b9350610a50818560208601610596565b80840191505092915050565b5f610a678284610a2c565b915081905092915050565b7f496e76616c69642063616e646964617465206e616d65000000000000000000005f82015250565b5f610aa6601683610745565b9150610ab182610a72565b602082019050919050565b5f6020820190508181035f830152610ad381610a9a565b9050919050565b7f4e487b71000000000000000000000000000000000000000000000000000000005f52601160045260245ffd5b5f610b11826105ec565b9150610b1c836105ec565b9250828203905081811115610b3457610b33610ada565b5b92915050565b7f4e487b71000000000000000000000000000000000000000000000000000000005f52603260045260245ffd5b5f610b71826105ec565b91507fffffffffffffffffffffffffffffffffffffffffffffffffffffffffffffffff8203610ba357610ba2610ada565b5b60018201905091905056fe596f752068617665207375636365737366756c6c79206361737420796f757220766f7465a2646970667358221220755c56cbcfa4fa3eebbcb7dc5cfadd19396edc657a715a3d1bad91065bea62fb64736f6c634300081a0033",
					"opcodes": "PUSH1 0x80 PUSH1 0x40 MSTORE CALLVALUE DUP1 ISZERO PUSH2 0xF JUMPI PUSH0 DUP1 REVERT JUMPDEST POP PUSH2 0x54 PUSH1 0x40 MLOAD DUP1 PUSH1 0x40 ADD PUSH1 0x40 MSTORE DUP1 PUSH1 0xA DUP2 MSTORE PUSH1 0x20 ADD PUSH32 0x456D6D616E75656C6C6100000000000000000000000000000000000000000000 DUP2 MSTORE POP PUSH2 0xE1 PUSH1 0x20 SHL PUSH1 0x20 SHR JUMP JUMPDEST PUSH2 0x98 PUSH1 0x40 MLOAD DUP1 PUSH1 0x40 ADD PUSH1 0x40 MSTORE DUP1 PUSH1 0x6 DUP2 MSTORE PUSH1 0x20 ADD PUSH32 0x4B616D4B616D0000000000000000000000000000000000000000000000000000 DUP2 MSTORE POP PUSH2 0xE1 PUSH1 0x20 SHL PUSH1 0x20 SHR JUMP JUMPDEST PUSH2 0xDC PUSH1 0x40 MLOAD DUP1 PUSH1 0x40 ADD PUSH1 0x40 MSTORE DUP1 PUSH1 0x9 DUP2 MSTORE PUSH1 0x20 ADD PUSH32 0x4761627269656C6C610000000000000000000000000000000000000000000000 DUP2 MSTORE POP PUSH2 0xE1 PUSH1 0x20 SHL PUSH1 0x20 SHR JUMP JUMPDEST PUSH2 0x5B7 JUMP JUMPDEST PUSH0 DUP2 PUSH1 0x40 MLOAD PUSH1 0x20 ADD PUSH2 0xF3 SWAP2 SWAP1 PUSH2 0x22A JUMP JUMPDEST PUSH1 0x40 MLOAD PUSH1 0x20 DUP2 DUP4 SUB SUB DUP2 MSTORE SWAP1 PUSH1 0x40 MSTORE DUP1 MLOAD SWAP1 PUSH1 0x20 ADD KECCAK256 SWAP1 POP PUSH0 DUP1 PUSH0 DUP4 DUP2 MSTORE PUSH1 0x20 ADD SWAP1 DUP2 MSTORE PUSH1 0x20 ADD PUSH0 KECCAK256 SLOAD EQ PUSH2 0x15D JUMPI PUSH1 0x40 MLOAD PUSH32 0x8C379A000000000000000000000000000000000000000000000000000000000 DUP2 MSTORE PUSH1 0x4 ADD PUSH2 0x154 SWAP1 PUSH2 0x29A JUMP JUMPDEST PUSH1 0x40 MLOAD DUP1 SWAP2 SUB SWAP1 REVERT JUMPDEST PUSH1 0x1 PUSH1 0x40 MLOAD DUP1 PUSH1 0x40 ADD PUSH1 0x40 MSTORE DUP1 DUP5 DUP2 MSTORE PUSH1 0x20 ADD PUSH0 DUP2 MSTORE POP SWAP1 DUP1 PUSH1 0x1 DUP2 SLOAD ADD DUP1 DUP3 SSTORE DUP1 SWAP2 POP POP PUSH1 0x1 SWAP1 SUB SWAP1 PUSH0 MSTORE PUSH1 0x20 PUSH0 KECCAK256 SWAP1 PUSH1 0x2 MUL ADD PUSH0 SWAP1 SWAP2 SWAP1 SWAP2 SWAP1 SWAP2 POP PUSH0 DUP3 ADD MLOAD DUP2 PUSH0 ADD SWAP1 DUP2 PUSH2 0x1AD SWAP2 SWAP1 PUSH2 0x4E8 JUMP JUMPDEST POP PUSH1 0x20 DUP3 ADD MLOAD DUP2 PUSH1 0x1 ADD SSTORE POP POP PUSH1 0x1 DUP1 SLOAD SWAP1 POP PUSH0 DUP1 DUP4 DUP2 MSTORE PUSH1 0x20 ADD SWAP1 DUP2 MSTORE PUSH1 0x20 ADD PUSH0 KECCAK256 DUP2 SWAP1 SSTORE POP POP POP JUMP JUMPDEST PUSH0 DUP2 MLOAD SWAP1 POP SWAP2 SWAP1 POP JUMP JUMPDEST PUSH0 DUP2 SWAP1 POP SWAP3 SWAP2 POP POP JUMP JUMPDEST DUP3 DUP2 DUP4 MCOPY PUSH0 DUP4 DUP4 ADD MSTORE POP POP POP JUMP JUMPDEST PUSH0 PUSH2 0x204 DUP3 PUSH2 0x1D8 JUMP JUMPDEST PUSH2 0x20E DUP2 DUP6 PUSH2 0x1E2 JUMP JUMPDEST SWAP4 POP PUSH2 0x21E DUP2 DUP6 PUSH1 0x20 DUP7 ADD PUSH2 0x1EC JUMP JUMPDEST DUP1 DUP5 ADD SWAP2 POP POP SWAP3 SWAP2 POP POP JUMP JUMPDEST PUSH0 PUSH2 0x235 DUP3 DUP5 PUSH2 0x1FA JUMP JUMPDEST SWAP2 POP DUP2 SWAP1 POP SWAP3 SWAP2 POP POP JUMP JUMPDEST PUSH0 DUP3 DUP3 MSTORE PUSH1 0x20 DUP3 ADD SWAP1 POP SWAP3 SWAP2 POP POP JUMP JUMPDEST PUSH32 0x43616E64696461746520616C7265616479206578697374730000000000000000 PUSH0 DUP3 ADD MSTORE POP JUMP JUMPDEST PUSH0 PUSH2 0x284 PUSH1 0x18 DUP4 PUSH2 0x240 JUMP JUMPDEST SWAP2 POP PUSH2 0x28F DUP3 PUSH2 0x250 JUMP JUMPDEST PUSH1 0x20 DUP3 ADD SWAP1 POP SWAP2 SWAP1 POP JUMP JUMPDEST PUSH0 PUSH1 0x20 DUP3 ADD SWAP1 POP DUP2 DUP2 SUB PUSH0 DUP4 ADD MSTORE PUSH2 0x2B1 DUP2 PUSH2 0x278 JUMP JUMPDEST SWAP1 POP SWAP2 SWAP1 POP JUMP JUMPDEST PUSH32 0x4E487B7100000000000000000000000000000000000000000000000000000000 PUSH0 MSTORE PUSH1 0x41 PUSH1 0x4 MSTORE PUSH1 0x24 PUSH0 REVERT JUMPDEST PUSH32 0x4E487B7100000000000000000000000000000000000000000000000000000000 PUSH0 MSTORE PUSH1 0x22 PUSH1 0x4 MSTORE PUSH1 0x24 PUSH0 REVERT JUMPDEST PUSH0 PUSH1 0x2 DUP3 DIV SWAP1 POP PUSH1 0x1 DUP3 AND DUP1 PUSH2 0x329 JUMPI PUSH1 0x7F DUP3 AND SWAP2 POP JUMPDEST PUSH1 0x20 DUP3 LT DUP2 SUB PUSH2 0x33C JUMPI PUSH2 0x33B PUSH2 0x2E5 JUMP JUMPDEST JUMPDEST POP SWAP2 SWAP1 POP JUMP JUMPDEST PUSH0 DUP2 SWAP1 POP DUP2 PUSH0 MSTORE PUSH1 0x20 PUSH0 KECCAK256 SWAP1 POP SWAP2 SWAP1 POP JUMP JUMPDEST PUSH0 PUSH1 0x20 PUSH1 0x1F DUP4 ADD DIV SWAP1 POP SWAP2 SWAP1 POP JUMP JUMPDEST PUSH0 DUP3 DUP3 SHL SWAP1 POP SWAP3 SWAP2 POP POP JUMP JUMPDEST PUSH0 PUSH1 0x8 DUP4 MUL PUSH2 0x39E PUSH32 0xFFFFFFFFFFFFFFFFFFFFFFFFFFFFFFFFFFFFFFFFFFFFFFFFFFFFFFFFFFFFFFFF DUP3 PUSH2 0x363 JUMP JUMPDEST PUSH2 0x3A8 DUP7 DUP4 PUSH2 0x363 JUMP JUMPDEST SWAP6 POP DUP1 NOT DUP5 AND SWAP4 POP DUP1 DUP7 AND DUP5 OR SWAP3 POP POP POP SWAP4 SWAP3 POP POP POP JUMP JUMPDEST PUSH0 DUP2 SWAP1 POP SWAP2 SWAP1 POP JUMP JUMPDEST PUSH0 DUP2 SWAP1 POP SWAP2 SWAP1 POP JUMP JUMPDEST PUSH0 PUSH2 0x3EC PUSH2 0x3E7 PUSH2 0x3E2 DUP5 PUSH2 0x3C0 JUMP JUMPDEST PUSH2 0x3C9 JUMP JUMPDEST PUSH2 0x3C0 JUMP JUMPDEST SWAP1 POP SWAP2 SWAP1 POP JUMP JUMPDEST PUSH0 DUP2 SWAP1 POP SWAP2 SWAP1 POP JUMP JUMPDEST PUSH2 0x405 DUP4 PUSH2 0x3D2 JUMP JUMPDEST PUSH2 0x419 PUSH2 0x411 DUP3 PUSH2 0x3F3 JUMP JUMPDEST DUP5 DUP5 SLOAD PUSH2 0x36F JUMP JUMPDEST DUP3 SSTORE POP POP POP POP JUMP JUMPDEST PUSH0 SWAP1 JUMP JUMPDEST PUSH2 0x42D PUSH2 0x421 JUMP JUMPDEST PUSH2 0x438 DUP2 DUP5 DUP5 PUSH2 0x3FC JUMP JUMPDEST POP POP POP JUMP JUMPDEST JUMPDEST DUP2 DUP2 LT ISZERO PUSH2 0x45B JUMPI PUSH2 0x450 PUSH0 DUP3 PUSH2 0x425 JUMP JUMPDEST PUSH1 0x1 DUP2 ADD SWAP1 POP PUSH2 0x43E JUMP JUMPDEST POP POP JUMP JUMPDEST PUSH1 0x1F DUP3 GT ISZERO PUSH2 0x4A0 JUMPI PUSH2 0x471 DUP2 PUSH2 0x342 JUMP JUMPDEST PUSH2 0x47A DUP5 PUSH2 0x354 JUMP JUMPDEST DUP2 ADD PUSH1 0x20 DUP6 LT ISZERO PUSH2 0x489 JUMPI DUP2 SWAP1 POP JUMPDEST PUSH2 0x49D PUSH2 0x495 DUP6 PUSH2 0x354 JUMP JUMPDEST DUP4 ADD DUP3 PUSH2 0x43D JUMP JUMPDEST POP POP JUMPDEST POP POP POP JUMP JUMPDEST PUSH0 DUP3 DUP3 SHR SWAP1 POP SWAP3 SWAP2 POP POP JUMP JUMPDEST PUSH0 PUSH2 0x4C0 PUSH0 NOT DUP5 PUSH1 0x8 MUL PUSH2 0x4A5 JUMP JUMPDEST NOT DUP1 DUP4 AND SWAP2 POP POP SWAP3 SWAP2 POP POP JUMP JUMPDEST PUSH0 PUSH2 0x4D8 DUP4 DUP4 PUSH2 0x4B1 JUMP JUMPDEST SWAP2 POP DUP3 PUSH1 0x2 MUL DUP3 OR SWAP1 POP SWAP3 SWAP2 POP POP JUMP JUMPDEST PUSH2 0x4F1 DUP3 PUSH2 0x1D8 JUMP JUMPDEST PUSH8 0xFFFFFFFFFFFFFFFF DUP2 GT ISZERO PUSH2 0x50A JUMPI PUSH2 0x509 PUSH2 0x2B8 JUMP JUMPDEST JUMPDEST PUSH2 0x514 DUP3 SLOAD PUSH2 0x312 JUMP JUMPDEST PUSH2 0x51F DUP3 DUP3 DUP6 PUSH2 0x45F JUMP JUMPDEST PUSH0 PUSH1 0x20 SWAP1 POP PUSH1 0x1F DUP4 GT PUSH1 0x1 DUP2 EQ PUSH2 0x550 JUMPI PUSH0 DUP5 ISZERO PUSH2 0x53E JUMPI DUP3 DUP8 ADD MLOAD SWAP1 POP JUMPDEST PUSH2 0x548 DUP6 DUP3 PUSH2 0x4CD JUMP JUMPDEST DUP7 SSTORE POP PUSH2 0x5AF JUMP JUMPDEST PUSH1 0x1F NOT DUP5 AND PUSH2 0x55E DUP7 PUSH2 0x342 JUMP JUMPDEST PUSH0 JUMPDEST DUP3 DUP2 LT ISZERO PUSH2 0x585 JUMPI DUP5 DUP10 ADD MLOAD DUP3 SSTORE PUSH1 0x1 DUP3 ADD SWAP2 POP PUSH1 0x20 DUP6 ADD SWAP5 POP PUSH1 0x20 DUP2 ADD SWAP1 POP PUSH2 0x560 JUMP JUMPDEST DUP7 DUP4 LT ISZERO PUSH2 0x5A2 JUMPI DUP5 DUP10 ADD MLOAD PUSH2 0x59E PUSH1 0x1F DUP10 AND DUP3 PUSH2 0x4B1 JUMP JUMPDEST DUP4 SSTORE POP JUMPDEST PUSH1 0x1 PUSH1 0x2 DUP9 MUL ADD DUP9 SSTORE POP POP POP JUMPDEST POP POP POP POP POP POP JUMP JUMPDEST PUSH2 0xC08 DUP1 PUSH2 0x5C4 PUSH0 CODECOPY PUSH0 RETURN INVALID PUSH1 0x80 PUSH1 0x40 MSTORE CALLVALUE DUP1 ISZERO PUSH2 0xF JUMPI PUSH0 DUP1 REVERT JUMPDEST POP PUSH1 0x4 CALLDATASIZE LT PUSH2 0x4A JUMPI PUSH0 CALLDATALOAD PUSH1 0xE0 SHR DUP1 PUSH4 0x9EEF43E EQ PUSH2 0x4E JUMPI DUP1 PUSH4 0xDC96015 EQ PUSH2 0x7E JUMPI DUP1 PUSH4 0x3477EE2E EQ PUSH2 0x9C JUMPI DUP1 PUSH4 0xFC36E15B EQ PUSH2 0xCD JUMPI JUMPDEST PUSH0 DUP1 REVERT JUMPDEST PUSH2 0x68 PUSH1 0x4 DUP1 CALLDATASIZE SUB DUP2 ADD SWAP1 PUSH2 0x63 SWAP2 SWAP1 PUSH2 0x4F5 JUMP JUMPDEST PUSH2 0xFD JUMP JUMPDEST PUSH1 0x40 MLOAD PUSH2 0x75 SWAP2 SWAP1 PUSH2 0x53A JUMP JUMPDEST PUSH1 0x40 MLOAD DUP1 SWAP2 SUB SWAP1 RETURN JUMPDEST PUSH2 0x86 PUSH2 0x11A JUMP JUMPDEST PUSH1 0x40 MLOAD PUSH2 0x93 SWAP2 SWAP1 PUSH2 0x6D0 JUMP JUMPDEST PUSH1 0x40 MLOAD DUP1 SWAP2 SUB SWAP1 RETURN JUMPDEST PUSH2 0xB6 PUSH1 0x4 DUP1 CALLDATASIZE SUB DUP2 ADD SWAP1 PUSH2 0xB1 SWAP2 SWAP1 PUSH2 0x71A JUMP JUMPDEST PUSH2 0x20F JUMP JUMPDEST PUSH1 0x40 MLOAD PUSH2 0xC4 SWAP3 SWAP2 SWAP1 PUSH2 0x79C JUMP JUMPDEST PUSH1 0x40 MLOAD DUP1 SWAP2 SUB SWAP1 RETURN JUMPDEST PUSH2 0xE7 PUSH1 0x4 DUP1 CALLDATASIZE SUB DUP2 ADD SWAP1 PUSH2 0xE2 SWAP2 SWAP1 PUSH2 0x8F6 JUMP JUMPDEST PUSH2 0x2C4 JUMP JUMPDEST PUSH1 0x40 MLOAD PUSH2 0xF4 SWAP2 SWAP1 PUSH2 0x93D JUMP JUMPDEST PUSH1 0x40 MLOAD DUP1 SWAP2 SUB SWAP1 RETURN JUMPDEST PUSH1 0x2 PUSH1 0x20 MSTORE DUP1 PUSH0 MSTORE PUSH1 0x40 PUSH0 KECCAK256 PUSH0 SWAP2 POP SLOAD SWAP1 PUSH2 0x100 EXP SWAP1 DIV PUSH1 0xFF AND DUP2 JUMP JUMPDEST PUSH1 0x60 PUSH1 0x1 DUP1 SLOAD DUP1 PUSH1 0x20 MUL PUSH1 0x20 ADD PUSH1 0x40 MLOAD SWAP1 DUP2 ADD PUSH1 0x40 MSTORE DUP1 SWAP3 SWAP2 SWAP1 DUP2 DUP2 MSTORE PUSH1 0x20 ADD PUSH0 SWAP1 JUMPDEST DUP3 DUP3 LT ISZERO PUSH2 0x206 JUMPI DUP4 DUP3 SWAP1 PUSH0 MSTORE PUSH1 0x20 PUSH0 KECCAK256 SWAP1 PUSH1 0x2 MUL ADD PUSH1 0x40 MLOAD DUP1 PUSH1 0x40 ADD PUSH1 0x40 MSTORE SWAP1 DUP2 PUSH0 DUP3 ADD DUP1 SLOAD PUSH2 0x16D SWAP1 PUSH2 0x98A JUMP JUMPDEST DUP1 PUSH1 0x1F ADD PUSH1 0x20 DUP1 SWAP2 DIV MUL PUSH1 0x20 ADD PUSH1 0x40 MLOAD SWAP1 DUP2 ADD PUSH1 0x40 MSTORE DUP1 SWAP3 SWAP2 SWAP1 DUP2 DUP2 MSTORE PUSH1 0x20 ADD DUP3 DUP1 SLOAD PUSH2 0x199 SWAP1 PUSH2 0x98A JUMP JUMPDEST DUP1 ISZERO PUSH2 0x1E4 JUMPI DUP1 PUSH1 0x1F LT PUSH2 0x1BB JUMPI PUSH2 0x100 DUP1 DUP4 SLOAD DIV MUL DUP4 MSTORE SWAP2 PUSH1 0x20 ADD SWAP2 PUSH2 0x1E4 JUMP JUMPDEST DUP3 ADD SWAP2 SWAP1 PUSH0 MSTORE PUSH1 0x20 PUSH0 KECCAK256 SWAP1 JUMPDEST DUP2 SLOAD DUP2 MSTORE SWAP1 PUSH1 0x1 ADD SWAP1 PUSH1 0x20 ADD DUP1 DUP4 GT PUSH2 0x1C7 JUMPI DUP3 SWAP1 SUB PUSH1 0x1F AND DUP3 ADD SWAP2 JUMPDEST POP POP POP POP POP DUP2 MSTORE PUSH1 0x20 ADD PUSH1 0x1 DUP3 ADD SLOAD DUP2 MSTORE POP POP DUP2 MSTORE PUSH1 0x20 ADD SWAP1 PUSH1 0x1 ADD SWAP1 PUSH2 0x13D JUMP JUMPDEST POP POP POP POP SWAP1 POP SWAP1 JUMP JUMPDEST PUSH1 0x1 DUP2 DUP2 SLOAD DUP2 LT PUSH2 0x21E JUMPI PUSH0 DUP1 REVERT JUMPDEST SWAP1 PUSH0 MSTORE PUSH1 0x20 PUSH0 KECCAK256 SWAP1 PUSH1 0x2 MUL ADD PUSH0 SWAP2 POP SWAP1 POP DUP1 PUSH0 ADD DUP1 SLOAD PUSH2 0x23D SWAP1 PUSH2 0x98A JUMP JUMPDEST DUP1 PUSH1 0x1F ADD PUSH1 0x20 DUP1 SWAP2 DIV MUL PUSH1 0x20 ADD PUSH1 0x40 MLOAD SWAP1 DUP2 ADD PUSH1 0x40 MSTORE DUP1 SWAP3 SWAP2 SWAP1 DUP2 DUP2 MSTORE PUSH1 0x20 ADD DUP3 DUP1 SLOAD PUSH2 0x269 SWAP1 PUSH2 0x98A JUMP JUMPDEST DUP1 ISZERO PUSH2 0x2B4 JUMPI DUP1 PUSH1 0x1F LT PUSH2 0x28B JUMPI PUSH2 0x100 DUP1 DUP4 SLOAD DIV MUL DUP4 MSTORE SWAP2 PUSH1 0x20 ADD SWAP2 PUSH2 0x2B4 JUMP JUMPDEST DUP3 ADD SWAP2 SWAP1 PUSH0 MSTORE PUSH1 0x20 PUSH0 KECCAK256 SWAP1 JUMPDEST DUP2 SLOAD DUP2 MSTORE SWAP1 PUSH1 0x1 ADD SWAP1 PUSH1 0x20 ADD DUP1 DUP4 GT PUSH2 0x297 JUMPI DUP3 SWAP1 SUB PUSH1 0x1F AND DUP3 ADD SWAP2 JUMPDEST POP POP POP POP POP SWAP1 DUP1 PUSH1 0x1 ADD SLOAD SWAP1 POP DUP3 JUMP JUMPDEST PUSH1 0x60 PUSH1 0x2 PUSH0 CALLER PUSH20 0xFFFFFFFFFFFFFFFFFFFFFFFFFFFFFFFFFFFFFFFF AND PUSH20 0xFFFFFFFFFFFFFFFFFFFFFFFFFFFFFFFFFFFFFFFF AND DUP2 MSTORE PUSH1 0x20 ADD SWAP1 DUP2 MSTORE PUSH1 0x20 ADD PUSH0 KECCAK256 PUSH0 SWAP1 SLOAD SWAP1 PUSH2 0x100 EXP SWAP1 DIV PUSH1 0xFF AND ISZERO PUSH2 0x350 JUMPI PUSH1 0x40 MLOAD PUSH32 0x8C379A000000000000000000000000000000000000000000000000000000000 DUP2 MSTORE PUSH1 0x4 ADD PUSH2 0x347 SWAP1 PUSH2 0xA04 JUMP JUMPDEST PUSH1 0x40 MLOAD DUP1 SWAP2 SUB SWAP1 REVERT JUMPDEST PUSH0 DUP3 PUSH1 0x40 MLOAD PUSH1 0x20 ADD PUSH2 0x362 SWAP2 SWAP1 PUSH2 0xA5C JUMP JUMPDEST PUSH1 0x40 MLOAD PUSH1 0x20 DUP2 DUP4 SUB SUB DUP2 MSTORE SWAP1 PUSH1 0x40 MSTORE DUP1 MLOAD SWAP1 PUSH1 0x20 ADD KECCAK256 SWAP1 POP PUSH0 DUP1 PUSH0 DUP4 DUP2 MSTORE PUSH1 0x20 ADD SWAP1 DUP2 MSTORE PUSH1 0x20 ADD PUSH0 KECCAK256 SLOAD SWAP1 POP PUSH0 DUP2 GT PUSH2 0x3D0 JUMPI PUSH1 0x40 MLOAD PUSH32 0x8C379A000000000000000000000000000000000000000000000000000000000 DUP2 MSTORE PUSH1 0x4 ADD PUSH2 0x3C7 SWAP1 PUSH2 0xABC JUMP JUMPDEST PUSH1 0x40 MLOAD DUP1 SWAP2 SUB SWAP1 REVERT JUMPDEST PUSH1 0x1 DUP1 DUP3 PUSH2 0x3DE SWAP2 SWAP1 PUSH2 0xB07 JUMP JUMPDEST DUP2 SLOAD DUP2 LT PUSH2 0x3EF JUMPI PUSH2 0x3EE PUSH2 0xB3A JUMP JUMPDEST JUMPDEST SWAP1 PUSH0 MSTORE PUSH1 0x20 PUSH0 KECCAK256 SWAP1 PUSH1 0x2 MUL ADD PUSH1 0x1 ADD PUSH0 DUP2 SLOAD DUP1 SWAP3 SWAP2 SWAP1 PUSH2 0x40E SWAP1 PUSH2 0xB67 JUMP JUMPDEST SWAP2 SWAP1 POP SSTORE POP PUSH1 0x1 PUSH1 0x2 PUSH0 CALLER PUSH20 0xFFFFFFFFFFFFFFFFFFFFFFFFFFFFFFFFFFFFFFFF AND PUSH20 0xFFFFFFFFFFFFFFFFFFFFFFFFFFFFFFFFFFFFFFFF AND DUP2 MSTORE PUSH1 0x20 ADD SWAP1 DUP2 MSTORE PUSH1 0x20 ADD PUSH0 KECCAK256 PUSH0 PUSH2 0x100 EXP DUP2 SLOAD DUP2 PUSH1 0xFF MUL NOT AND SWAP1 DUP4 ISZERO ISZERO MUL OR SWAP1 SSTORE POP PUSH1 0x40 MLOAD DUP1 PUSH1 0x60 ADD PUSH1 0x40 MSTORE DUP1 PUSH1 0x24 DUP2 MSTORE PUSH1 0x20 ADD PUSH2 0xBAF PUSH1 0x24 SWAP2 CODECOPY SWAP3 POP POP POP SWAP2 SWAP1 POP JUMP JUMPDEST PUSH0 PUSH1 0x40 MLOAD SWAP1 POP SWAP1 JUMP JUMPDEST PUSH0 DUP1 REVERT JUMPDEST PUSH0 DUP1 REVERT JUMPDEST PUSH0 PUSH20 0xFFFFFFFFFFFFFFFFFFFFFFFFFFFFFFFFFFFFFFFF DUP3 AND SWAP1 POP SWAP2 SWAP1 POP JUMP JUMPDEST PUSH0 PUSH2 0x4C4 DUP3 PUSH2 0x49B JUMP JUMPDEST SWAP1 POP SWAP2 SWAP1 POP JUMP JUMPDEST PUSH2 0x4D4 DUP2 PUSH2 0x4BA JUMP JUMPDEST DUP2 EQ PUSH2 0x4DE JUMPI PUSH0 DUP1 REVERT JUMPDEST POP JUMP JUMPDEST PUSH0 DUP2 CALLDATALOAD SWAP1 POP PUSH2 0x4EF DUP2 PUSH2 0x4CB JUMP JUMPDEST SWAP3 SWAP2 POP POP JUMP JUMPDEST PUSH0 PUSH1 0x20 DUP3 DUP5 SUB SLT ISZERO PUSH2 0x50A JUMPI PUSH2 0x509 PUSH2 0x493 JUMP JUMPDEST JUMPDEST PUSH0 PUSH2 0x517 DUP5 DUP3 DUP6 ADD PUSH2 0x4E1 JUMP JUMPDEST SWAP2 POP POP SWAP3 SWAP2 POP POP JUMP JUMPDEST PUSH0 DUP2 ISZERO ISZERO SWAP1 POP SWAP2 SWAP1 POP JUMP JUMPDEST PUSH2 0x534 DUP2 PUSH2 0x520 JUMP JUMPDEST DUP3 MSTORE POP POP JUMP JUMPDEST PUSH0 PUSH1 0x20 DUP3 ADD SWAP1 POP PUSH2 0x54D PUSH0 DUP4 ADD DUP5 PUSH2 0x52B JUMP JUMPDEST SWAP3 SWAP2 POP POP JUMP JUMPDEST PUSH0 DUP2 MLOAD SWAP1 POP SWAP2 SWAP1 POP JUMP JUMPDEST PUSH0 DUP3 DUP3 MSTORE PUSH1 0x20 DUP3 ADD SWAP1 POP SWAP3 SWAP2 POP POP JUMP JUMPDEST PUSH0 DUP2 SWAP1 POP PUSH1 0x20 DUP3 ADD SWAP1 POP SWAP2 SWAP1 POP JUMP JUMPDEST PUSH0 DUP2 MLOAD SWAP1 POP SWAP2 SWAP1 POP JUMP JUMPDEST PUSH0 DUP3 DUP3 MSTORE PUSH1 0x20 DUP3 ADD SWAP1 POP SWAP3 SWAP2 POP POP JUMP JUMPDEST DUP3 DUP2 DUP4 MCOPY PUSH0 DUP4 DUP4 ADD MSTORE POP POP POP JUMP JUMPDEST PUSH0 PUSH1 0x1F NOT PUSH1 0x1F DUP4 ADD AND SWAP1 POP SWAP2 SWAP1 POP JUMP JUMPDEST PUSH0 PUSH2 0x5BE DUP3 PUSH2 0x57C JUMP JUMPDEST PUSH2 0x5C8 DUP2 DUP6 PUSH2 0x586 JUMP JUMPDEST SWAP4 POP PUSH2 0x5D8 DUP2 DUP6 PUSH1 0x20 DUP7 ADD PUSH2 0x596 JUMP JUMPDEST PUSH2 0x5E1 DUP2 PUSH2 0x5A4 JUMP JUMPDEST DUP5 ADD SWAP2 POP POP SWAP3 SWAP2 POP POP JUMP JUMPDEST PUSH0 DUP2 SWAP1 POP SWAP2 SWAP1 POP JUMP JUMPDEST PUSH2 0x5FE DUP2 PUSH2 0x5EC JUMP JUMPDEST DUP3 MSTORE POP POP JUMP JUMPDEST PUSH0 PUSH1 0x40 DUP4 ADD PUSH0 DUP4 ADD MLOAD DUP5 DUP3 SUB PUSH0 DUP7 ADD MSTORE PUSH2 0x61E DUP3 DUP3 PUSH2 0x5B4 JUMP JUMPDEST SWAP2 POP POP PUSH1 0x20 DUP4 ADD MLOAD PUSH2 0x633 PUSH1 0x20 DUP7 ADD DUP3 PUSH2 0x5F5 JUMP JUMPDEST POP DUP1 SWAP2 POP POP SWAP3 SWAP2 POP POP JUMP JUMPDEST PUSH0 PUSH2 0x649 DUP4 DUP4 PUSH2 0x604 JUMP JUMPDEST SWAP1 POP SWAP3 SWAP2 POP POP JUMP JUMPDEST PUSH0 PUSH1 0x20 DUP3 ADD SWAP1 POP SWAP2 SWAP1 POP JUMP JUMPDEST PUSH0 PUSH2 0x667 DUP3 PUSH2 0x553 JUMP JUMPDEST PUSH2 0x671 DUP2 DUP6 PUSH2 0x55D JUMP JUMPDEST SWAP4 POP DUP4 PUSH1 0x20 DUP3 MUL DUP6 ADD PUSH2 0x683 DUP6 PUSH2 0x56D JUMP JUMPDEST DUP1 PUSH0 JUMPDEST DUP6 DUP2 LT ISZERO PUSH2 0x6BE JUMPI DUP5 DUP5 SUB DUP10 MSTORE DUP2 MLOAD PUSH2 0x69F DUP6 DUP3 PUSH2 0x63E JUMP JUMPDEST SWAP5 POP PUSH2 0x6AA DUP4 PUSH2 0x651 JUMP JUMPDEST SWAP3 POP PUSH1 0x20 DUP11 ADD SWAP10 POP POP PUSH1 0x1 DUP2 ADD SWAP1 POP PUSH2 0x686 JUMP JUMPDEST POP DUP3 SWAP8 POP DUP8 SWAP6 POP POP POP POP POP POP SWAP3 SWAP2 POP POP JUMP JUMPDEST PUSH0 PUSH1 0x20 DUP3 ADD SWAP1 POP DUP2 DUP2 SUB PUSH0 DUP4 ADD MSTORE PUSH2 0x6E8 DUP2 DUP5 PUSH2 0x65D JUMP JUMPDEST SWAP1 POP SWAP3 SWAP2 POP POP JUMP JUMPDEST PUSH2 0x6F9 DUP2 PUSH2 0x5EC JUMP JUMPDEST DUP2 EQ PUSH2 0x703 JUMPI PUSH0 DUP1 REVERT JUMPDEST POP JUMP JUMPDEST PUSH0 DUP2 CALLDATALOAD SWAP1 POP PUSH2 0x714 DUP2 PUSH2 0x6F0 JUMP JUMPDEST SWAP3 SWAP2 POP POP JUMP JUMPDEST PUSH0 PUSH1 0x20 DUP3 DUP5 SUB SLT ISZERO PUSH2 0x72F JUMPI PUSH2 0x72E PUSH2 0x493 JUMP JUMPDEST JUMPDEST PUSH0 PUSH2 0x73C DUP5 DUP3 DUP6 ADD PUSH2 0x706 JUMP JUMPDEST SWAP2 POP POP SWAP3 SWAP2 POP POP JUMP JUMPDEST PUSH0 DUP3 DUP3 MSTORE PUSH1 0x20 DUP3 ADD SWAP1 POP SWAP3 SWAP2 POP POP JUMP JUMPDEST PUSH0 PUSH2 0x75F DUP3 PUSH2 0x57C JUMP JUMPDEST PUSH2 0x769 DUP2 DUP6 PUSH2 0x745 JUMP JUMPDEST SWAP4 POP PUSH2 0x779 DUP2 DUP6 PUSH1 0x20 DUP7 ADD PUSH2 0x596 JUMP JUMPDEST PUSH2 0x782 DUP2 PUSH2 0x5A4 JUMP JUMPDEST DUP5 ADD SWAP2 POP POP SWAP3 SWAP2 POP POP JUMP JUMPDEST PUSH2 0x796 DUP2 PUSH2 0x5EC JUMP JUMPDEST DUP3 MSTORE POP POP JUMP JUMPDEST PUSH0 PUSH1 0x40 DUP3 ADD SWAP1 POP DUP2 DUP2 SUB PUSH0 DUP4 ADD MSTORE PUSH2 0x7B4 DUP2 DUP6 PUSH2 0x755 JUMP JUMPDEST SWAP1 POP PUSH2 0x7C3 PUSH1 0x20 DUP4 ADD DUP5 PUSH2 0x78D JUMP JUMPDEST SWAP4 SWAP3 POP POP POP JUMP JUMPDEST PUSH0 DUP1 REVERT JUMPDEST PUSH0 DUP1 REVERT JUMPDEST PUSH32 0x4E487B7100000000000000000000000000000000000000000000000000000000 PUSH0 MSTORE PUSH1 0x41 PUSH1 0x4 MSTORE PUSH1 0x24 PUSH0 REVERT JUMPDEST PUSH2 0x808 DUP3 PUSH2 0x5A4 JUMP JUMPDEST DUP2 ADD DUP2 DUP2 LT PUSH8 0xFFFFFFFFFFFFFFFF DUP3 GT OR ISZERO PUSH2 0x827 JUMPI PUSH2 0x826 PUSH2 0x7D2 JUMP JUMPDEST JUMPDEST DUP1 PUSH1 0x40 MSTORE POP POP POP JUMP JUMPDEST PUSH0 PUSH2 0x839 PUSH2 0x48A JUMP JUMPDEST SWAP1 POP PUSH2 0x845 DUP3 DUP3 PUSH2 0x7FF JUMP JUMPDEST SWAP2 SWAP1 POP JUMP JUMPDEST PUSH0 PUSH8 0xFFFFFFFFFFFFFFFF DUP3 GT ISZERO PUSH2 0x864 JUMPI PUSH2 0x863 PUSH2 0x7D2 JUMP JUMPDEST JUMPDEST PUSH2 0x86D DUP3 PUSH2 0x5A4 JUMP JUMPDEST SWAP1 POP PUSH1 0x20 DUP2 ADD SWAP1 POP SWAP2 SWAP1 POP JUMP JUMPDEST DUP3 DUP2 DUP4 CALLDATACOPY PUSH0 DUP4 DUP4 ADD MSTORE POP POP POP JUMP JUMPDEST PUSH0 PUSH2 0x89A PUSH2 0x895 DUP5 PUSH2 0x84A JUMP JUMPDEST PUSH2 0x830 JUMP JUMPDEST SWAP1 POP DUP3 DUP2 MSTORE PUSH1 0x20 DUP2 ADD DUP5 DUP5 DUP5 ADD GT ISZERO PUSH2 0x8B6 JUMPI PUSH2 0x8B5 PUSH2 0x7CE JUMP JUMPDEST JUMPDEST PUSH2 0x8C1 DUP5 DUP3 DUP6 PUSH2 0x87A JUMP JUMPDEST POP SWAP4 SWAP3 POP POP POP JUMP JUMPDEST PUSH0 DUP3 PUSH1 0x1F DUP4 ADD SLT PUSH2 0x8DD JUMPI PUSH2 0x8DC PUSH2 0x7CA JUMP JUMPDEST JUMPDEST DUP2 CALLDATALOAD PUSH2 0x8ED DUP5 DUP3 PUSH1 0x20 DUP7 ADD PUSH2 0x888 JUMP JUMPDEST SWAP2 POP POP SWAP3 SWAP2 POP POP JUMP JUMPDEST PUSH0 PUSH1 0x20 DUP3 DUP5 SUB SLT ISZERO PUSH2 0x90B JUMPI PUSH2 0x90A PUSH2 0x493 JUMP JUMPDEST JUMPDEST PUSH0 DUP3 ADD CALLDATALOAD PUSH8 0xFFFFFFFFFFFFFFFF DUP2 GT ISZERO PUSH2 0x928 JUMPI PUSH2 0x927 PUSH2 0x497 JUMP JUMPDEST JUMPDEST PUSH2 0x934 DUP5 DUP3 DUP6 ADD PUSH2 0x8C9 JUMP JUMPDEST SWAP2 POP POP SWAP3 SWAP2 POP POP JUMP JUMPDEST PUSH0 PUSH1 0x20 DUP3 ADD SWAP1 POP DUP2 DUP2 SUB PUSH0 DUP4 ADD MSTORE PUSH2 0x955 DUP2 DUP5 PUSH2 0x755 JUMP JUMPDEST SWAP1 POP SWAP3 SWAP2 POP POP JUMP JUMPDEST PUSH32 0x4E487B7100000000000000000000000000000000000000000000000000000000 PUSH0 MSTORE PUSH1 0x22 PUSH1 0x4 MSTORE PUSH1 0x24 PUSH0 REVERT JUMPDEST PUSH0 PUSH1 0x2 DUP3 DIV SWAP1 POP PUSH1 0x1 DUP3 AND DUP1 PUSH2 0x9A1 JUMPI PUSH1 0x7F DUP3 AND SWAP2 POP JUMPDEST PUSH1 0x20 DUP3 LT DUP2 SUB PUSH2 0x9B4 JUMPI PUSH2 0x9B3 PUSH2 0x95D JUMP JUMPDEST JUMPDEST POP SWAP2 SWAP1 POP JUMP JUMPDEST PUSH32 0x596F75206861766520616C726561647920766F74656400000000000000000000 PUSH0 DUP3 ADD MSTORE POP JUMP JUMPDEST PUSH0 PUSH2 0x9EE PUSH1 0x16 DUP4 PUSH2 0x745 JUMP JUMPDEST SWAP2 POP PUSH2 0x9F9 DUP3 PUSH2 0x9BA JUMP JUMPDEST PUSH1 0x20 DUP3 ADD SWAP1 POP SWAP2 SWAP1 POP JUMP JUMPDEST PUSH0 PUSH1 0x20 DUP3 ADD SWAP1 POP DUP2 DUP2 SUB PUSH0 DUP4 ADD MSTORE PUSH2 0xA1B DUP2 PUSH2 0x9E2 JUMP JUMPDEST SWAP1 POP SWAP2 SWAP1 POP JUMP JUMPDEST PUSH0 DUP2 SWAP1 POP SWAP3 SWAP2 POP POP JUMP JUMPDEST PUSH0 PUSH2 0xA36 DUP3 PUSH2 0x57C JUMP JUMPDEST PUSH2 0xA40 DUP2 DUP6 PUSH2 0xA22 JUMP JUMPDEST SWAP4 POP PUSH2 0xA50 DUP2 DUP6 PUSH1 0x20 DUP7 ADD PUSH2 0x596 JUMP JUMPDEST DUP1 DUP5 ADD SWAP2 POP POP SWAP3 SWAP2 POP POP JUMP JUMPDEST PUSH0 PUSH2 0xA67 DUP3 DUP5 PUSH2 0xA2C JUMP JUMPDEST SWAP2 POP DUP2 SWAP1 POP SWAP3 SWAP2 POP POP JUMP JUMPDEST PUSH32 0x496E76616C69642063616E646964617465206E616D6500000000000000000000 PUSH0 DUP3 ADD MSTORE POP JUMP JUMPDEST PUSH0 PUSH2 0xAA6 PUSH1 0x16 DUP4 PUSH2 0x745 JUMP JUMPDEST SWAP2 POP PUSH2 0xAB1 DUP3 PUSH2 0xA72 JUMP JUMPDEST PUSH1 0x20 DUP3 ADD SWAP1 POP SWAP2 SWAP1 POP JUMP JUMPDEST PUSH0 PUSH1 0x20 DUP3 ADD SWAP1 POP DUP2 DUP2 SUB PUSH0 DUP4 ADD MSTORE PUSH2 0xAD3 DUP2 PUSH2 0xA9A JUMP JUMPDEST SWAP1 POP SWAP2 SWAP1 POP JUMP JUMPDEST PUSH32 0x4E487B7100000000000000000000000000000000000000000000000000000000 PUSH0 MSTORE PUSH1 0x11 PUSH1 0x4 MSTORE PUSH1 0x24 PUSH0 REVERT JUMPDEST PUSH0 PUSH2 0xB11 DUP3 PUSH2 0x5EC JUMP JUMPDEST SWAP2 POP PUSH2 0xB1C DUP4 PUSH2 0x5EC JUMP JUMPDEST SWAP3 POP DUP3 DUP3 SUB SWAP1 POP DUP2 DUP2 GT ISZERO PUSH2 0xB34 JUMPI PUSH2 0xB33 PUSH2 0xADA JUMP JUMPDEST JUMPDEST SWAP3 SWAP2 POP POP JUMP JUMPDEST PUSH32 0x4E487B7100000000000000000000000000000000000000000000000000000000 PUSH0 MSTORE PUSH1 0x32 PUSH1 0x4 MSTORE PUSH1 0x24 PUSH0 REVERT JUMPDEST PUSH0 PUSH2 0xB71 DUP3 PUSH2 0x5EC JUMP JUMPDEST SWAP2 POP PUSH32 0xFFFFFFFFFFFFFFFFFFFFFFFFFFFFFFFFFFFFFFFFFFFFFFFFFFFFFFFFFFFFFFFF DUP3 SUB PUSH2 0xBA3 JUMPI PUSH2 0xBA2 PUSH2 0xADA JUMP JUMPDEST JUMPDEST PUSH1 0x1 DUP3 ADD SWAP1 POP SWAP2 SWAP1 POP JUMP INVALID MSIZE PUSH16 0x75206861766520737563636573736675 PUSH13 0x6C79206361737420796F757220 PUSH23 0x6F7465A2646970667358221220755C56CBCFA4FA3EEBBC 0xB7 0xDC TLOAD STATICCALL 0xDD NOT CODECOPY PUSH15 0xDC657A715A3D1BAD91065BEA62FB64 PUSH20 0x6F6C634300081A00330000000000000000000000 "
				},
				"gasEstimates": {
					"creation": {
						"codeDepositCost": "616000",
						"executionCost": "infinite",
						"totalCost": "infinite"
					},
					"external": {
						"candidates(uint256)": "infinite",
						"getVotes()": "infinite",
						"hasVoted(address)": "2811",
						"vote(string)": "infinite"
					},
					"internal": {
						"addCandidate(string memory)": "infinite"
					}
				},
				"methodIdentifiers": {
					"candidates(uint256)": "3477ee2e",
					"getVotes()": "0dc96015",
					"hasVoted(address)": "09eef43e",
					"vote(string)": "fc36e15b"
				}
			},
			"storageLayout": {
				"storage": [
					{
						"astId": 10,
						"contract": "contracts/Voting.sol:VotingSystem",
						"label": "candidateIndex",
						"offset": 0,
						"slot": "0",
						"type": "t_mapping(t_bytes32,t_uint256)"
					},
					{
						"astId": 14,
						"contract": "contracts/Voting.sol:VotingSystem",
						"label": "candidates",
						"offset": 0,
						"slot": "1",
						"type": "t_array(t_struct(Candidate)6_storage)dyn_storage"
					},
					{
						"astId": 18,
						"contract": "contracts/Voting.sol:VotingSystem",
						"label": "hasVoted",
						"offset": 0,
						"slot": "2",
						"type": "t_mapping(t_address,t_bool)"
					}
				],
				"types": {
					"t_address": {
						"encoding": "inplace",
						"label": "address",
						"numberOfBytes": "20"
					},
					"t_array(t_struct(Candidate)6_storage)dyn_storage": {
						"base": "t_struct(Candidate)6_storage",
						"encoding": "dynamic_array",
						"label": "struct VotingSystem.Candidate[]",
						"numberOfBytes": "32"
					},
					"t_bool": {
						"encoding": "inplace",
						"label": "bool",
						"numberOfBytes": "1"
					},
					"t_bytes32": {
						"encoding": "inplace",
						"label": "bytes32",
						"numberOfBytes": "32"
					},
					"t_mapping(t_address,t_bool)": {
						"encoding": "mapping",
						"key": "t_address",
						"label": "mapping(address => bool)",
						"numberOfBytes": "32",
						"value": "t_bool"
					},
					"t_mapping(t_bytes32,t_uint256)": {
						"encoding": "mapping",
						"key": "t_bytes32",
						"label": "mapping(bytes32 => uint256)",
						"numberOfBytes": "32",
						"value": "t_uint256"
					},
					"t_string_storage": {
						"encoding": "bytes",
						"label": "string",
						"numberOfBytes": "32"
					},
					"t_struct(Candidate)6_storage": {
						"encoding": "inplace",
						"label": "struct VotingSystem.Candidate",
						"members": [
							{
								"astId": 3,
								"contract": "contracts/Voting.sol:VotingSystem",
								"label": "name",
								"offset": 0,
								"slot": "0",
								"type": "t_string_storage"
							},
							{
								"astId": 5,
								"contract": "contracts/Voting.sol:VotingSystem",
								"label": "numberOfVotes",
								"offset": 0,
								"slot": "1",
								"type": "t_uint256"
							}
						],
						"numberOfBytes": "64"
					},
					"t_uint256": {
						"encoding": "inplace",
						"label": "uint256",
						"numberOfBytes": "32"
					}
				}
			},
			"userdoc": {
				"kind": "user",
				"methods": {},
				"version": 1
			}
		}
	}
}